:100000000C9472000C9493000C9493000C94930045
:100010000C9493000C9493000C9493000C94930014
:100020000C94CD000C9493000C9493000C949300CA
:100030000C9493000C9493000C9493000C949300F4
:100040000C9493000C9493000C9493000C949300E4
:100050000C9493000C9407110C9493000C9493004F
:100060000C9493000C9448060C9481060C94930015
:100070000C9493000C9493000C9493000C949300B4
:100080000C9493000C9493000C9493000C949300A4
:100090000C9493000C9493000C9493000C94930094
:1000A0000C9493000C9493000C9493000C94930084
:1000B0000C9493000C9493000C9493000C94930074
:1000C0000C9493000C9493000C9493000C94930064
:1000D0000C9493000C9493000C9493000C94930054
:1000E0000C94930011241FBECFEFD1E2DEBFCDBF31
:1000F00000E00CBF12E0A0E0B2E0EEE9F5E300E0C2
:100100000BBF02C007900D92AA3DB107D9F726E0B8
:10011000AAEDB2E001C01D92A432B207E1F70E943D
:10012000DB140C94CD1A0C940000CF92DF92EF9266
:10013000FF920F931F9390930D0280930C02709384
:100140000B0260930A025093090240930802309315
:100150000702209306021093050200930402F09216
:100160000302E0920202D0920102C09200021F91AB
:100170000F91FF90EF90DF90CF9008956F98779A4E
:100180000895F894EF9AEAE6F0E080818068808331
:1001900080818F7B8083789408951F920F920FB691
:1001A0000F9211240BB60F922F933F934F935F93AF
:1001B0006F937F938F939F93AF93BF93EF93FF932F
:1001C00084E192E00E942207109212021092110222
:1001D000FF91EF91BF91AF919F918F917F916F911F
:1001E0005F914F913F912F910F900BBE0F900FBEDB
:1001F0000F901F901895F894A1EAB0E01C928FEF31
:100200008093A5001092A4001092A9001092A8005B
:100210001092AB001092AA001092AD001092AC00A8
:10022000E0EAF0E08081886A808380818B7A808335
:1002300080818160808380818D7F80838C918860C4
:100240008C938C9183608C938C918B7F8C9378941E
:100250000895F894A1E2B1E01C928FEF80932501FC
:1002600010922401109229011092280110922B0162
:1002700010922A0110922D0110922C01E0E2F1E07F
:100280008081886A808380818B7A8083808181608D
:10029000808380818D7F80838C9188608C938C910A
:1002A00083608C938C918B7F8C9378940895F894D1
:1002B00015BC8FEF86BD17BC18BC84B5806A84BDA1
:1002C00084B58F7A84BD84B5816084BD84B58D7F0B
:1002D00084BD85B5886085BD85B5836085BD85B5E0
:1002E0008B7F85BD789408950E94CC06911102C041
:1002F000811108958FEF0895EF92FF920F931F934E
:10030000CF93DF93CDB7DEB7E2970FB6F894DEBF99
:100310000FBECDBF7C010E94740120E030E0890156
:100320008F3F71F00F5F1F4FE1E0F0E0EC0FFD1F1A
:10033000E20FF31F8083833219F40330110524F494
:100340000E9474019801EBCFBE016F5F7F4FC70120
:100350000E94DD17E2960FB6F894DEBF0FBECDBF48
:10036000DF91CF911F910F91FF90EF900895E1E001
:10037000F1E0808188638083E2E0F1E0808188633E
:1003800080838FEF8093A8008093AC008093AA00B5
:100390008093280108951092A8008FEF8093AC00FD
:1003A0008093AA008093280108958FEF8093A8007E
:1003B0001092AC008093AA008093280108958FEFDB
:1003C0008093A8008093AC008093AA0080932801BA
:1003D00008950C94DF01EF92FF920F931F93CF9338
:1003E000DF937C018B01C0E0D0E0CE15DF0534F552
:1003F0000E94D50180E090E0801791075CF42FEF18
:1004000031EE44E0215030404040E1F700C00000B0
:100410000196F2CF0E94DF0180E090E08017910703
:100420005CF42FEF31EE44E0215030404040E1F7E2
:1004300000C000000196F2CF2196D7CFDF91CF9177
:100440001F910F91FF90EF900895EF92FF920F93FD
:100450001F93CF93DF937C018B01C0E0D0E0CE15DA
:10046000DF0534F50E94CB0180E090E08017910712
:100470005CF42FEF31EE44E0215030404040E1F792
:1004800000C000000196F2CF0E94DF0180E090E002
:10049000801791075CF42FEF31EE44E0215030409B
:1004A0004040E1F700C000000196F2CF2196D7CF7F
:1004B000DF91CF911F910F91FF90EF900895EF92F0
:1004C000FF920F931F93CF93DF937C018B01C0E0CA
:1004D000D0E0CE15DF0544F50E94D5010E94CB0186
:1004E00080E090E0801791075CF42FEF31EE44E05C
:1004F000215030404040E1F700C000000196F2CFAB
:100500000E94DF0180E090E0801791075CF42FEFFC
:1005100031EE44E0215030404040E1F700C000009F
:100520000196F2CF2196D5CFDF91CF911F910F91F8
:10053000FF90EF90089581B18A6281B982B1857D83
:1005400082B908950E944B110E94F21088E090E059
:100550000E94B1060E944B078CE692E00E9422079F
:1005600078940895CF93DF930E949B020D9881E0C9
:1005700090E00E945C0DCEE0D2E0888190E00E9485
:1005800071080B9881E090E00E945C0D898190E0F9
:100590000E947108099881E090E00E945C0D8A81B8
:1005A00090E0DF91CF910C947108825F9D4FFC0128
:1005B000808190E00E94760880E090E00C94980999
:1005C000EF92FF920F931F93CF93DF93EC0182E0A2
:1005D00090E00E94D502F82EE92E81E090E00E9482
:1005E000D502182F092F80E090E00E94D502EF92EB
:1005F000FF920F931F939F938F938DE792E09F93AA
:100600008F93DF93CF930E94E4178DB79EB70A961E
:100610000FB6F8949EBF0FBE8DBFDF91CF911F9193
:100620000F91FF90EF9008950F931F93CF93DF9357
:100630000E94A2020E94B2020EE012E0CAEBD4E0D5
:10064000F80181918F0190E00E94760880E090E0AF
:100650000E94980989939993F4E0C03CDF0781F7E1
:100660008AEB94E0DF91CF911F910F910895EAE01A
:10067000F1E0808188638083EBE0F1E08081886332
:100680008083E1E0F1E0808180618083E2E0F1E05D
:10069000808180618083089510922C01109228013E
:1006A0001092AA0010922A01089580910A02809364
:1006B0002C0110922A011092280180910C02809343
:1006C000AA00089510922C0180910A0280932A01B9
:1006D00080910C02809328011092AA00089581E075
:1006E00090E00E94D502899760F080910A02809381
:1006F0002C0110922A0180910C0280932801109203
:10070000AA00089510922C0180910A0280932A0178
:100710001092280180910C028093AA0008952091E4
:100720000A0220932C0110922A01109228011092A3
:10073000AA0020E030E0281739074CF4EFE1FEE48E
:100740003197F1F700C000002F5F3F4FF4CF0C94BA
:100750004C0310922C0110922A0120910C0220933C
:1007600028011092AA0020E030E0281739074CF445
:10077000EFE1FEE43197F1F700C000002F5F3F4F3B
:10078000F4CF0C944C03CF93DF93EC010E945503FC
:1007900080E090E08C179D0744F4EFE1FEE4319790
:1007A000F1F700C000000196F5CFDF91CF910C94D6
:1007B0004C03CF93DF93EC010E94620380E090E052
:1007C0008C179D0744F4EFE1FEE43197F1F700C088
:1007D00000000196F5CFDF91CF910C944C03CF939D
:1007E000DF93EC010E946F0380E090E08C179D077F
:1007F00044F4EFE1FEE43197F1F700C00000019608
:10080000F5CFDF91CF910C944C03CF93DF93EC01A4
:100810000E94820380E090E08C179D0744F4EFE390
:10082000FCE93197F1F700C000000196F5CFDF91A8
:10083000CF910C944C039C01261B370B37FF03C050
:1008400031952195310981E090E02417350714F0A6
:1008500080E090E00895CF93DF9380E090E00E94E5
:10086000D502909354048093530482E090E00E9458
:10087000D502EC018091530490915404E8ECF0E02F
:10088000BF010E9419169C01909354048093530455
:10089000CE01BF010E9419169093EE038093ED03E1
:1008A000A901481B590B57FF03C0519541955109A8
:1008B000483051059CF0821793073CF48091060262
:1008C000909107020E948F0309C02817390774F41A
:1008D00080910402909105020E94A9038091080270
:1008E00090910902DF91CF910C94EF03DF91CF91AA
:1008F0000895CF93DF9380E090E00E94D50290931B
:1009000054048093530482E090E00E94D502EC01ED
:100910008091530490915404E8ECF0E0BF010E94F0
:1009200019169C018093530430935404CE01BF01E7
:100930000E9419168093ED039093EE039F938F937B
:100940003F932F9385EA92E09F938F9380EB95E0FE
:100950009F938F930E94E41780EB95E00E942207FB
:100960008DB79EB708960FB6F8949EBF0FBE8DBF89
:100970008091530490915404C2973CF480910602F4
:10098000909107020E94A9030CC08091ED03909101
:10099000EE03C2975CF480910402909105020E94DC
:1009A0008F03809108029091090209C0809108028A
:1009B000909109029C01220F331F820F931FDF9138
:1009C000CF910C94EF0381E090E00E94D502885C07
:1009D000910990931C0680931B06809106029091CA
:1009E00007029C01220F331F820F931F0E94EF0307
:1009F00080E00E944D1390E0009719F40E942B04B0
:100A0000F7CF8B3F910544F00E944C0362E070E009
:100A100081E090E00C945F028930910574F08A3F88
:100A2000910594F780910602909107020E94A90314
:100A300080E00E944D1390E0F2CF809106029091E9
:100A400007020E948F0380E00E944D1390E08A3FCE
:100A500091059CF3D9CF8091080290910902880FEB
:100A6000991F0E94EF0381E090E00E94D5029093CD
:100A70001C0680931B0680E090E00E94D5029093B4
:100A800054048093530480910202909103020E94C7
:100A9000C30363E070E082E090E00E94250281E001
:100AA00090E00E94D5022091530430915404A90192
:100AB000481B590BCA0157FF03C0919581959109B5
:100AC0000F9744F40E944C0362E070E081E090E0F4
:100AD0000C945F0282E090E00E94D50220911B06F8
:100AE00030911C06A901481B590BCA0157FF03C0CE
:100AF0009195819591090F972CF380910602909121
:100B000007020E94C303CBCF81E090E00E94D50290
:100B100090931C0680931B0682E090E00E94D50211
:100B20009093EE038093ED03809102029091030273
:100B30000E94D90381E090E00E94D5022091ED034C
:100B40003091EE03A901481B590BCA0157FF03C09E
:100B5000919581959109049744F40E944C0362E0B9
:100B600070E081E090E00C945F0280E090E00E94F1
:100B7000D50220911B0630911C06A901481B590B78
:100B8000CA0157FF03C091958195910904972CF3F1
:100B90008091040290910502CBCF8DEB92E00E94F0
:100BA00022070E94DA116FEF80E00E94F61160E0E8
:100BB00080E00E94051240E060E080E00E94E412C4
:100BC00040E061E080E00C94E412CF93DF93CDB776
:100BD000DEB7A8970FB6F894DEBF0FBECDBF0FECFF
:100BE00012E05E0185E1A80EB11CCE0101967C01E8
:100BF00080E00E944D13D82E1F928F931F930F9366
:100C0000BF92AF920E94E41782ED92E00E94220709
:100C10001F92DF921F930F93FF92EF920E94E417AF
:100C2000C7010E9422070FB6F894DEBF0FBECDBFEA
:100C3000DFCF0E9429010E94FB000E9437030E941F
:100C4000B7010E94CD050E944C030E94A2020E949F
:100C5000B2020E94BE000C94C100CF93DF93EC015E
:100C6000209799F080EB95E00E94E00280EB95E000
:100C70000E9422072FEF89E698E1215080409040A2
:100C8000E1F700C000002197EBCFDF91CF910895ED
:100C90001F920F920FB60F9211240BB60F922F9343
:100CA0003F934F935F938F939F93EF93FF93209185
:100CB000C0003091C60028718091E20290E0019658
:100CC0008F7799274091E10250E08417950739F01A
:100CD0008093E202FC01EB51FD4F308301C022E022
:100CE0002093E002FF91EF919F918F915F914F913F
:100CF0003F912F910F900BBE0F900FBE0F901F9042
:100D000018951F920F920FB60F9211240BB60F92E7
:100D10008F939F93EF93FF939091E4028091E3026E
:100D2000981779F08091E30290E001968F779927E8
:100D30008093E302FC01EB59FC4F80818093C60055
:100D400005C08091C1008F7D8093C100FF91EF911C
:100D50009F918F910F900BBE0F900FBE0F901F9021
:100D60001895F8941092E4021092E3021092E202B5
:100D70001092E102789497FF04C022E02093C00013
:100D80009F779093C5008093C40088E98093C10049
:100D900086E08093C2000895F8949091E2028091D9
:100DA000E102981304C0789480E091E0089578946B
:100DB0008091E10290E001968F7799278093E1027C
:100DC000FC01EB51FD4F20818091E00290E0982FD3
:100DD0008827820F911D0895F8949091E2028091E6
:100DE000E102981304C0789480E091E0089578942B
:100DF000E091E102F0E03196EF77FF27EB51FD4FF4
:100E000020818091E00290E0982F8827820F911D29
:100E100008952091E40230E02F5F3F4F2F77332772
:100E20004091E30250E024173507D1F3F901EB5963
:100E3000FC4F80832093E4028091C1008062809304
:100E4000C1000895CF93DF93EC018991882319F0B5
:100E50000E940907FACFDF91CF910895CF93DF93D6
:100E6000FC018491EF012196882321F00E9409075B
:100E7000FE01F7CFDF91CF910895F8948091E202BF
:100E80002091E102789490E080589F4F821B910955
:100E90008F7799270895F8948091E1028093E20278
:100EA000789408950F931F930097C9F0AC014150B7
:100EB000510960E070E080E090E08A019B0100272A
:100EC000012B022B032B31F07695679557954795AB
:100ED0000196F3CF982F8827842B952B02C080E0B2
:100EE00090E01F910F910895CF93DF93D82FC62FD5
:100EF000809113020E9451118D2F0E94A4118C2FFA
:100F00000E94A411DF91CF910C949C111F93CF9359
:100F1000DF93182FEB01809113020E945111812F52
:100F20000E94A4118D2F0E94A4118C2F0E94A41145
:100F3000DF91CF911F910C949C11FF920F931F93FF
:100F4000CF93DF93F82EEA01162F072F809113021B
:100F50000E9451118F2D0E94A411802F0E94A41174
:100F6000812F0E94A4118D2F0E94A4118C2F0E940A
:100F7000A411DF91CF911F910F91FF900C949C11C0
:100F8000CF93C82F809113020E9451118C2F0E9481
:100F9000A4118091130281600E949A110E94BF11D6
:100FA000C82F0E949C118C2FCF910895CF93DF936F
:100FB000C82F809113020E9451118C2F0E94A411FE
:100FC0008091130281600E949A110E94B511C82F6E
:100FD000D0E0DC2FCC270E94BF11C82B0E949C11AF
:100FE000CE01DF91CF910895CF92DF92EF92FF92E1
:100FF000CF93C82F809113020E9451118C2F0E9411
:10100000A4118091130281600E949A110E94B5116F
:10101000C82ED12CE12CF12CFC2CEE24DD24CC2488
:101020000E94B511E82A0E94B511C82F0E94BF1175
:10103000C82ADC2A0E949C11C701B601CF91FF90FB
:10104000EF90DF90CF900895FF920F931F93CF936F
:10105000DF93182FF62ED72FC42F809113020E94F2
:101060005111812F0E94A4110F2D1D2FCC2339F077
:10107000F80181918F010E94A411C150F7CFDF9137
:10108000CF911F910F91FF900C949C11FF920F93A1
:101090001F93CF93DF93C82FF62E072F142F809125
:1010A00013020E9451118C2F0E94A41180911302EF
:1010B00081600E949A11CF2DD02F112359F0123048
:1010C00018F00E94B51102C00E94BF118883115010
:1010D0002196F3CFDF91CF911F910F91FF900C9448
:1010E0009C11682F66958AE80C947407809313020C
:1010F0000895809113020895CF92DF92EF92FF92AC
:101100006B017C0120E030E0A9010E94851687FD7B
:1011100019C028EB3EEF4FEF53E4C701B6010E9420
:10112000431718167CF020E030E040E053E4C7019C
:10113000B6010E9448170E948A1684E40E9486071E
:1011400081E001C080E0FF90EF90DF90CF900895A4
:1011500084E40E94D607BC0180E090E00E94B916AA
:1011600020E030E040E05CE30E94481708950097DB
:1011700011F480E503C0019731F480E70E94C007B5
:101180008F5F880F08958FEF0895CF92DF92EF92CF
:10119000FF926B017C0161E080E80E94740761E0CE
:1011A0008FEF0E94740760E080E00E9474076091F6
:1011B0001F0681E90E94740761E080E00E947407C5
:1011C00060E08FEF0E94740760E080E80E9474077F
:1011D000C114D104E104F10499F088EF0E94D6070C
:1011E000009739F0DC01A70196010E944F166B01B0
:1011F0007C01B701A60184E00E949D0764E001C064
:1012000062E080E0FF90EF90DF90CF900C94740745
:1012100061E080E00E94740761E08FEF0E94740734
:1012200060E080E00E94740760E081E90E9474073A
:1012300061E080E00E94740760E08FEF0C94740717
:10124000EF92FF920F931F93CF93DF93CDB7DEB74B
:101250002C970FB6F894DEBF0FBECDBF7C010E9465
:10126000FB1070931E0660931D0683E10E94C00769
:101270008770D9F48091E6039091E703892BA9F355
:101280000E94FB1020911D0630911E06621B730BFD
:101290008091E6039091E7038617970730F781E086
:1012A0008093E5038FEF9FEF36C0E114F10429F43A
:1012B0008EE10E94D6078C0129C04CE0BE016F5F11
:1012C0007F4F84E10E9446088981869586958695A0
:1012D000F70180878B819C8198278927982797839E
:1012E00086838F819885982789279827938382837F
:1012F00089859A85982789279827958384830B85E4
:101300001C851027012710271183008361E08BE0E3
:101310000E947407C8012C960FB6F894DEBF0FBE6A
:10132000CDBFDF91CF911F910F91FF90EF90089566
:10133000CF93DF93EC0161E080E80E94740761E0E5
:101340008FEF0E94740760E080E00E947407609154
:101350001F0681E90E94740761E080E00E94740723
:1013600060E08FEF0E94740760E080E80E947407DD
:1013700061E080E00E9474070E94FB1070931E06DB
:1013800060931D0680E00E94C00780FF1DC0809111
:10139000E6039091E703892BA9F30E94FB102091AB
:1013A0001D0630911E06621B730B8091E60390911F
:1013B000E7038617970730F781E08093E5038FEF07
:1013C0009FEFDF91CF910895CE01DF91CF910C94E3
:1013D00020098091E5031092E50308959093E703B7
:1013E0008093E60308958091E6039091E7030895C2
:1013F000EF92FF920F931F93CF937C018B0161E0DB
:1014000080E80E94740761E08FEF0E94740760E03B
:1014100080E00E94740766E08FEF0E94740783E803
:101420000E94C007682F646083E80E94740767E029
:101430008FEF0E94740761E081E80E94740761E009
:1014400080E80E9474076BE684E90E94740760E0FC
:1014500083E80E9474070E94FB1070931E0660933D
:101460001D0683E80E94C007C82F811116C0809115
:10147000E6039091E703892BA1F30E94FB102091D2
:101480001D0630911E06621B730B8091E60390913E
:10149000E7038617970728F731C061E083E80E94C9
:1014A000740782E90E94C007982F9F77F701908305
:1014B000881F8827881FF801808360E081E80E94E8
:1014C000740766E08FEF0E94740783E80E94C007EC
:1014D000682F6B7F83E80E94740761E08FEF0E94A2
:1014E000740761E080E00E94740760E08FEF0E9463
:1014F000740760E080E80E947407C1E08C2FCF91F0
:101500001F910F91FF90EF900895CF93DF93EC011F
:1015100081E00E94C00784FB992790F9988383FBA0
:10152000992790F99A8382FB992790F9998386FBF2
:10153000992790F99B83881F8827881F8C83DF91C8
:10154000CF9108952F923F924F925F926F927F9228
:101550008F929F92AF92BF92CF92DF92EF92FF92C3
:101560000F931F93CF93DF9300D000D0CDB7DEB79A
:101570001C017E836D8380E090E00E94B70890E0BC
:10158000ED81FE819183808386E40E94C007682EEE
:10159000712CFFEF6F1A7F0AED81FE8175826482E4
:1015A000A081B0E020E03FE24AE350E00E944F1605
:1015B0004B015C01F4EF8F0EF1E09F1EA11CB11CEA
:1015C00098EEC92E93E0D92EE12CF12CC501B4017F
:1015D000A70196010E942D16D3010E945A16698315
:1015E0007A838B839C8320ED422E27E0522E612C40
:1015F000712CC501B401A30192010E942D166981CD
:101600007A818B819C81620F731F841F951FA701B4
:1016100096010E942D16ED81FE8122873387448733
:10162000558781E50E94D6078C01112702C0000F63
:10163000111F9A95E2F70F5F1F4FED81FE8117830F
:101640000683A081B0E020E03FE24AE350E00E9440
:101650004F164B015C01F4EF8F0EF1E09F1EA11CB1
:10166000B11CC501B401A70196010E942D16D80135
:101670000E944F1669837A838B839C83C501B401D2
:10168000A30192010E942D1669817A818B819C8130
:10169000620F731F841F951FA70196010E942D16CC
:1016A000ED81FE8126873787408B518B80E70E9432
:1016B000C0078F5F880F90E0ED81FE819383828366
:1016C00081E70E94D6079C01992702C0880F991FC5
:1016D0003A95E2F70196ED81FE8191878087F101CD
:1016E0002381222341F0ED81FE8126813781821BF7
:1016F000930B91878087ED81FE81A281B0E020E08D
:101700003FE24AE350E00E944F166B017C01F4EF88
:10171000CF0EF1E0DF1EE11CF11C88EE882E83E085
:10172000982EA12CB12CC701B601A50194010E94ED
:101730002D16ED81FE81A085B1850E944F162B01EB
:101740003C01C701B60120ED37E040E050E00E94C7
:101750002D16C301B201620F731F841F951FA501CF
:1017600094010E942D16ED81FE81228B338B448BD8
:10177000558B26960FB6F894DEBF0FBECDBFDF9116
:10178000CF911F910F91FF90EF90DF90CF90BF907E
:10179000AF909F908F907F906F905F904F903F9011
:1017A0002F9008954F925F926F927F928F929F92A7
:1017B000AF92BF92CF92DF92EF92FF921F93CF939F
:1017C000DF93CDB7DEB76B970FB6F894DEBF0FBED1
:1017D000CDBF60322EE472078105910508F4A8C0E0
:1017E0006B017C01CE0147960E94850ABE016F5FA6
:1017F0007F4FCE0147960E94A20A8F89882349F025
:101800008B859C85AD85BE858A5C944FAF4FBF4F5D
:1018100004C088EE98E0A0E0B0E0298D222369F0B2
:101820004B855C856D857E854E545D4F6F4F7F4F38
:10183000440F551F661F771F0BC0288D222361F0B0
:101840004B855C856D857E854C565D4F6F4F7F4F18
:10185000840F951FA61FB71F1A8D112361F04F85A6
:10186000588969897A894C565D4F6F4F7F4F840F35
:10187000951FA61FB71F2B8D222309F457C02C01DB
:101880003D0126E2420E22E0521E611C711CC4146E
:10189000D504E604F70408F44BC0AB81B0E020E0C7
:1018A0003FE24AE350E00E944F164B015C0124EFF7
:1018B000820E21E0921EA11CB11CA70196012419E1
:1018C000350946095709A8EEB3E00E944F162B01CF
:1018D0003C01C501B40120ED37E040E050E00E943A
:1018E0002D16420E531E641E751EC501B40128EE4E
:1018F00033E040E050E00E942D16C301B2010E9487
:101900002D16C901112321F08F819885820F931F15
:101910000E945207BC0181E70E948607C092200600
:10192000D0922106E0922206F092230681E001C0C7
:1019300080E06B960FB6F894DEBF0FBECDBFDF918F
:10194000CF911F91FF90EF90DF90CF90BF90AF901D
:101950009F908F907F906F905F904F9008950F931E
:101960001F93CF93DF93CDB7DEB76B970FB6F89485
:10197000DEBF0FBECDBFCE0147960E94850ABE01D5
:101980006F5F7F4FCE0147960E94A20A8F898823FE
:1019900059F08B859C85AD85BE85BC01CD016C570A
:1019A000724F8F4F9F4F04C066E37BE080E090E072
:1019B000298D222369F00B851C852D853E850E54CB
:1019C0001D4F2F4F3F4F000F111F221F331F0BC002
:1019D000288D222361F00B851C852D853E850C56B4
:1019E0001D4F2F4F3F4F600F711F821F931F2A8D76
:1019F000222361F00F85188929893A890C561D4FD9
:101A00002F4F3F4F600F711F821F931F2B8D22237B
:101A100061F00B891C892D893E890A5D1D4F2F4F6E
:101A20003F4F600F711F821F931F609320067093BA
:101A3000210680932206909323066B960FB6F894A6
:101A4000DEBF0FBECDBFDF91CF911F910F910895E3
:101A5000CF93682F616080E00E9474070E94FB10A2
:101A600070931E0660931D0683E10E94C007C82F75
:101A7000C770B1F48091E6039091E703892BA1F33D
:101A80000E94FB1020911D0630911E06621B730BF5
:101A90008091E6039091E7038617970728F709C01E
:101AA00061E08BE00E94740760E080E00E947407B0
:101AB000C1E08C2FCF910895CF93DF93CDB7DEB7E0
:101AC00028970FB6F894DEBF0FBECDBF882341F034
:101AD00089E80E94C007682F616089E80E94740746
:101AE00060E088E80E94740761E080E80E94740763
:101AF00061E08FEF0E94740760E080E00E9474074D
:101B000081E90E94C00780931F0661E080E00E9487
:101B1000740760E08FEF0E94740760E080E80E9425
:101B2000740780E60E94C007682F626180E60E9409
:101B3000740760E270E084E40E9486076FEF81E042
:101B40000E947407BE01695F7F4FCE0108960E9414
:101B5000F809811102C080E0D4C146E0BE016F5F88
:101B60007F4F80EB0E94460861E08FEF0E94740770
:101B700060E08FE40E9474076CE28EE40E947407B8
:101B800060E08FEF0E94740764EB86EB0E9474079D
:101B90008F81811102C040E001C04CE0A88580E047
:101BA00090E061E070E0282F269526952695582F25
:101BB0005770E1E0F0E0EC0FFD1FE20FF11D84171C
:101BC00010F0A9130AC09B0101C0220F5A95EAF731
:101BD000209530812323208309C0208130E002C07A
:101BE000359527955A95E2F720FD9F5F8F5F8033EB
:101BF000D1F646E0BE016F5F7F4F80EB0E94240864
:101C000061E08FEF0E94740760E080E00E9474073B
:101C100060E08FEF0E94740760E089E00E94740723
:101C200060E080E10E94740760E081E10E94740737
:101C300061E084E20E9474076FEF85E20E947407FE
:101C400060E085E70E94740761E08FEF0E947407EF
:101C50006CE28EE40E94740760E088E40E947407DE
:101C600060E280E30E94740760E08FEF0E947407D7
:101C700069E080E30E94740760E084E50E947407D5
:101C800064E081E30E94740763E082E30E947407CA
:101C900063E880E40E94740765E286E40E947407AA
:101CA00060E080E60E94740760E087E20E947407AB
:101CB00066E080E50E94740760E081E50E94740799
:101CC00066E982E50E94740768E086E50E94740771
:101CD00060E387E50E94740760E081E60E94740774
:101CE00060E082E60E94740760E084E60E94740768
:101CF00060E085E60E94740760EA86E60E94740749
:101D000061E08FEF0E94740762E382E20E94740731
:101D100064E187E40E9474076FEF89E40E9474070E
:101D200060E08AE40E94740760E08FEF0E9474070D
:101D30006AE08AE70E94740760E08BE70E947407FC
:101D400061E288E70E94740761E08FEF0E947407E8
:101D500064E383E20E94740760E082E40E947407F7
:101D60006FEF84E40E94740766E285E40E947407C2
:101D700065E086E40E94740760E480E40E947407D2
:101D800066E08EE00E9474076AE180E20E947407B8
:101D900060E483E40E94740760E08FEF0E947407A0
:101DA00063E084E30E94740764E485E30E9474079F
:101DB00061E08FEF0E94740764E081E30E94740782
:101DC00069E08BE40E94740765E08CE40E9474076C
:101DD00064E08DE40E94740760E08FEF0E94740756
:101DE00060E084E40E94740760E285E40E94740766
:101DF00068E087E40E94740768E288E40E94740740
:101E000060E087E60E94740764E080E70E94740740
:101E100061E081E70E9474076EEF82E70E94740719
:101E200060E086E70E94740760E087E70E9474071D
:101E300061E08FEF0E94740761E08DE00E947407FB
:101E400060E08FEF0E94740761E080E80E947407F1
:101E500068EF81E00E94740761E08FEF0E947407D1
:101E600061E08EE80E94740761E080E00E947407E0
:101E700060E08FEF0E94740760E080E80E947407C2
:101E800064E08AE00E94740784E80E94C007682F1B
:101E90006F7E84E80E94740761E08BE00E94740703
:101EA0000E94AF0C60932006709321068093220657
:101EB0009093230668EE81E00E94740760912006EB
:101EC0007091210680912206909123060E94D20BE8
:101ED00061E081E00E94740780E40E94280D88235D
:101EE00009F439CE62E081E00E94740780E00E942C
:101EF000280D882309F42FCE68EE81E00E94740734
:101F000081E028960FB6F894DEBF0FBECDBFDF91FB
:101F1000CF9108958F929F92AF92BF92CF92DF920E
:101F2000EF92FF921F93CF93DF93CDB7DEB76B97FE
:101F30000FB6F894DEBF0FBECDBF6C01162FF62E84
:101F4000F694FA94CE0147960E94850ABE016F5F0F
:101F50007F4FCE0147960E94A20AC114D10409F016
:101F600072C01E3069F028F41C3009F028C168E105
:101F70000AC0103139F0123109F021C160E503C007
:101F800060E301C060E487E50E94740768E086E5CD
:101F90000E9474076F2D80E50E947407A12FB0E0A6
:101FA00020E03FE24AE350E00E944F166B017C01C3
:101FB00024EFC20E21E0D21EE11CF11CC701B601C4
:101FC00028EE33E040E050E00E942D1649015A010E
:101FD000C701B60120ED37E040E050E00E942D1629
:101FE00069017A012F85388949895A89A8EEB3E0B9
:101FF0000E944F166C0D7D1D8E1D9F1DA501940125
:102000000E942D16C9010E945207BC0181E50E9461
:1020100086072B853C854D855E85A8EEB3E00E9442
:102020004F166C0D7D1D8E1D9F1DA50194010E94F4
:102030002D166FEF213081E0380708F4620F86E437
:102040000E947407A1C0CA94CD2809F0B8C01A3004
:1020500069F1C8F4183009F0B2C060E188E40E9468
:10206000740768E087E40E94740762E082E30E94DC
:1020700074076CE080E30E94740761E08FEF0E94B8
:10208000740760E336C01C30F9F01E3009F097C0C9
:1020900068E488E40E94740768E087E40E9474079B
:1020A00063E082E30E94740767E01BC068E288E493
:1020B0000E94740768E087E40E94740763E082E38B
:1020C0000E94740769E00DC068E388E40E94740709
:1020D00068E087E40E94740763E082E30E9474076B
:1020E00068E080E30E94740761E08FEF0E9474074C
:1020F00060E280E30E94740760E08FEF0E94740743
:102100006F2D80E70E947407A12FB0E020E03FE22E
:102110004AE350E00E944F166B017C0124EFC20E8F
:1021200021E0D21EE11CF11C2B893C894D895E897E
:10213000A8EEB3E00E944F164B015C01C701B60147
:1021400020ED37E040E050E00E942D16820E931EF5
:10215000A41EB51EC701B60128EE33E040E050E0F2
:102160000E942D16C501B4010E942D16C9016A8D69
:10217000662321F08F819885820F931F0E9452075A
:10218000BC0181E70E9486076091200670912106BC
:1021900080912206909123060E94D20B81E00E943A
:1021A000C007182F62E081E00E94740780E00E945F
:1021B000280D612F81E00E94740781E001C080E05A
:1021C0006B960FB6F894DEBF0FBECDBFDF91CF91F7
:1021D0001F91FF90EF90DF90CF90BF90AF909F90B6
:1021E0008F90089582E084BD95E095BD9AE797BDF4
:1021F00080936E0008952FB7F8946091E803709172
:10220000E9038091EA039091EB032FBF08951F9299
:102210000F920FB60F9211248F939F93AF93BF939A
:102220008091E8039091E903A091EA03B091EB0358
:102230000796A11DB11D8093E8039093E903A09335
:10224000EA03B093EB038091EC039DE6980F9D3772
:1022500018F49093EC0316C080518093EC038091A6
:10226000E8039091E903A091EA03B091EB03019692
:10227000A11DB11D8093E8039093E903A093EA03A5
:10228000B093EB03BF91AF919F918F910F900FBED1
:102290000F901F9018951092B90080EC8093B800B1
:1022A000089594EA9093BC009091BC0097FFFCCFF6
:1022B0009091B900987F983021F0903111F081E031
:1022C00008958093BB0084E88093BC008091BC009B
:1022D00087FFFCCF8091B900887F883111F080346E
:1022E00071F780E0089524EA34E844E92093BC00C3
:1022F0009091BC0097FFFCCF9091B900987F9830E7
:1023000011F0903199F78093BB003093BC0090910D
:10231000BC0097FFFCCF9091B900987F903211F0EC
:10232000983539F44093BC009091BC0094FDFCCFEB
:10233000DDCF08950C94511184E98093BC00809105
:10234000BC0084FDFCCF08958093BB0084E880939B
:10235000BC008091BC0087FFFCCF9091B900987FB2
:1023600081E0983209F480E0089584EC8093BC0009
:102370008091BC0087FFFCCF8091BB00089584E86A
:102380008093BC008091BC0087FFFCCF8091BB0094
:102390000895CF93DF93D62FC42F805C0E947311D2
:1023A0008D2F0E94A4118C2F0E94A411DF91CF9138
:1023B0000C949C11CF93DF930E944B1183E08A957C
:1023C000F1F70000C6E1D6E018828FEF89838A8397
:1023D0001B821C824981888160E00E94C9114A8168
:1023E000888161E0DF91CF910C94C911823060F453
:1023F00095E0899FF0011124EA5EF94F61834181E4
:10240000808160E00C94C9110895823060F495E0F9
:10241000899FF0011124EA5EF94F62834281808135
:1024200061E00C94C9110895823018F5A82FB0E02E
:1024300095E0899FF0011124EA5EF94F218181E046
:1024400090E001C0880F6A95EAF7411103C08095BA
:10245000822301C0822B95E09A9FF0019B9FF00D93
:102460001124EA5EF94F81834181808160E00C9400
:10247000C9110895823018F5A82FB0E095E0899F22
:10248000F0011124EA5EF94F228181E090E001C061
:10249000880F6A95EAF7411103C08095822301C035
:1024A000822B95E09A9FF0019B9FF00D1124EA5E2C
:1024B000F94F82834281808161E00C94C9110895B3
:1024C000823060F495E0899FF0011124EA5EF94FB3
:1024D00063834381808162E10C94C9110895823045
:1024E00060F495E0899FF0011124EA5EF94F64835E
:1024F0004481808163E10C94C91108951F93CF93A7
:10250000DF93162FD42FC52F805C0E947311812F6B
:102510000E94A4118D2F0E94A4118C2F0E94A4113F
:10252000DF91CF911F910C949C11CF93DF93C82F13
:10253000D62F80E48C0F0E9473118D2F0E94A4115E
:1025400081E48C0F0E949A110E94BF11C82F0E9433
:102550009C118C2FDF91CF9108950F931F93CF93F0
:10256000DF93823060F5142F062FC82FD0E095E05E
:10257000899FF0011124EA5EF94F808164E10E9495
:10258000951221E030E001C0220F0A95EAF71111FF
:1025900003C02095282301C0282B85E08C9FF001E3
:1025A0008D9FF00D1124EA5EF94F238343818081D2
:1025B00062E1DF91CF911F910F910C94C911DF91CE
:1025C000CF911F910F9108950F931F93CF93DF9396
:1025D000823060F5142F062FC82FD0E095E0899F38
:1025E000F0011124EA5EF94F808165E10E949512A5
:1025F00021E030E001C0220F0A95EAF7111103C073
:102600002095282301C0282B85E08C9FF0018D9F09
:10261000F00D1124EA5EF94F24834481808163E147
:10262000DF91CF911F910F910C94C911DF91CF9140
:102630001F910F910895CF93823098F4C62F95E0A3
:10264000899FF0011124EA5EF94F808162E10E94C6
:10265000951290E002C095958795CA95E2F7817032
:1026600001C080E0CF910895CF93823098F4C62FB7
:1026700095E0899FF0011124EA5EF94F808163E1C2
:102680000E94951290E002C095958795CA95E2F751
:10269000817001C080E0CF910895823050F495E0C0
:1026A000899FF0011124EA5EF94F808162E10C9468
:1026B000951280E00895823050F495E0899FF001F2
:1026C0001124EA5EF94F808163E10C94951280E059
:1026D0000895FF920F931F93CF93DF93823068F595
:1026E000122F042FF62E95E0899FE0011124CA5E77
:1026F000D94F88816AE00E949512E1E0F0E0BF01C5
:1027000001C0660FFA94EAF78F7B862BBF0101C0E8
:10271000660F0A95EAF78B7F682B01C0EE0F1A95BA
:10272000EAF76D7F462F4E2B88816AE0DF91CF91CB
:102730001F910F91FF900C94C911DF91CF911F91C0
:102740000F91FF900895FF920F931F93CF93DF9304
:10275000823068F5122F042FF62E95E0899FE00154
:102760001124CA5ED94F88816BE00E949512E1E086
:10277000F0E0BF0101C0660FFA94EAF78F7B862B69
:10278000BF0101C0660F0A95EAF78B7F682B01C075
:10279000EE0F1A95EAF76D7F462F4E2B88816BE07E
:1027A000DF91CF911F910F91FF900C94C911DF9190
:1027B000CF911F910F91FF900895BF92CF92DF921A
:1027C000EF92FF920F931F93CF93DF93823008F025
:1027D00069C0D02EB22E142FD62FE82EF12C25E072
:1027E000829FF0011124EA5EF94F808168E00E9427
:1027F000951241E050E0FA0102C0EE0FFF1FDA959A
:10280000E2F7EF01CE2EC094112319F04C2D48238E
:1028100002C04E2F482B85E08E9D80018F9D100DAC
:1028200011240A5E194FF801808168E00E94C911E5
:10283000F801808166E00E949512BB2019F04C2DB2
:10284000482302C04C2F482B85E08E9D80018F9D30
:10285000100D11240A5E194FF801808166E00E9474
:10286000C911F801808164E00E949512D11003C063
:102870004C2D482302C04C2F482B85E08E9DF00143
:102880008F9DF00D1124EA5EF94F808164E0DF91A5
:10289000CF911F910F91FF90EF90DF90CF90BF905D
:1028A0000C94C911DF91CF911F910F91FF90EF9080
:1028B000DF90CF90BF900895BF92CF92DF92EF92BA
:1028C000FF920F931F93CF93DF93823008F069C07C
:1028D000D02EB22E142FD62FE82EF12C25E0829F79
:1028E000F0011124EA5EF94F808169E00E9495129F
:1028F00041E050E0FA0102C0EE0FFF1FDA95E2F767
:10290000EF01CE2EC094112319F04C2D482302C0A4
:102910004E2F482B85E08E9D80018F9D100D112438
:102920000A5E194FF801808169E00E94C911F8011F
:10293000808167E00E949512BB2019F04C2D48233E
:1029400002C04C2F482B85E08E9D80018F9D100D7D
:1029500011240A5E194FF801808167E00E94C911B5
:10296000F801808165E00E949512D11003C04C2DC2
:10297000482302C04C2F482B85E08E9DF0018F9D8F
:10298000F00D1124EA5EF94F808165E0DF91CF916F
:102990001F910F91FF90EF90DF90CF90BF900C941C
:1029A000C911DF91CF911F910F91FF90EF90DF90B0
:1029B000CF90BF900895EF92FF920F931F93CF9304
:1029C000DF93F8940E94190688E090E00E94B10617
:1029D0000E944B0763E070E085E090E00E94EB010D
:1029E0002FEF83E294EF215080409040E1F700C048
:1029F000000080E292E00E94220765E070E08AE039
:102A000090E00E94EB018FE090E00E94EF03C0E0B5
:102A1000D0E0EE24E394F12C80E00E944D13282FA7
:102A20002F7E982F977F283051F0282F2F7D20312F
:102A300031F0282F2F7B203211F0943021F41092A6
:102A4000DB021092DA02973E11F0873F21F4F092F8
:102A5000DB02E092DA022091DA023091DB022130CF
:102A6000310509F48095883309F4CDC008F03FC0E2
:102A70008C3009F4CBC0C8F4833009F4C7C030F4FB
:102A8000813009F4C3C008F4B9C0C0C0863009F46D
:102A9000BDC020F4843009F4B9C0BECF873009F43A
:102AA000B5C0883009F4B2C0B7CF8C3109F4AEC0DC
:102AB00078F48F3009F4AAC020F48E3009F4A6C04F
:102AC000ABCF803109F49FC0883109F497C0A4CFFF
:102AD0008F3109F44BC020F48E3109F497C09CCF9C
:102AE000803209F490C0803309F48DC095CF8E37C1
:102AF00009F484C0E0F4803409F485C048F48E33CE
:102B000009F484C008F082C08C3309F47FC084CFFC
:102B1000803709F478C020F4803609F474C07CCF83
:102B2000883709F470C08C3709F46DC075CF803FC9
:102B300009F469C060F4803809F465C008F466C01F
:102B4000803C09F460C0803E09F45DC065CF8C3FD5
:102B500009F459C020F4883F09F45DC05DCF8E3F71
:102B600009F451C08F3F09F456C056CF8AE090E077
:102B70000E94EF0384E090E00E94D9030E94D501F7
:102B80002FEF8DE399E4215080409040E1F700C0A1
:102B90000000C130D10519F46BE272E005C0C2300B
:102BA000D10539F46AE372E080EC94E00E94DD170D
:102BB0000CC0C330D10549F469E472E080EC94E0C4
:102BC0000E94DD1701E010E002C000E010E080ECA0
:102BD00094E00E9422070E94DF012FEF83ED90E333
:102BE000215080409040E1F700C0000084E090E078
:102BF0000E94C303012BA1F421960ECF81E090E047
:102C00000E94EF0309CF81E090E007C081E090E0EF
:102C10000E94A90301CF8CE390E00E948F03FCCEB9
:102C200080E090E0DF91CF911F910F91FF90EF90A6
:102C3000089597FB072E16F4009407D077FD09D06E
:102C40000E94621607FC05D03EF4909581959F4F37
:102C50000895709561957F4F0895A1E21A2EAA1BE1
:102C6000BB1BFD010DC0AA1FBB1FEE1FFF1FA2173C
:102C7000B307E407F50720F0A21BB30BE40BF50B39
:102C8000661F771F881F991F1A9469F760957095C2
:102C9000809590959B01AC01BD01CF0108950E94E4
:102CA0007616A59F900DB49F900DA49F800D911D49
:102CB00011240895B7FF0C944F160E944F16821BE3
:102CC000930B0895AA1BBB1B51E107C0AA1FBB1F92
:102CD000A617B70710F0A61BB70B881F991F5A95A8
:102CE000A9F780959095BC01CD010895A29FB001F0
:102CF000B39FC001A39F700D811D1124911DB29F30
:102D0000700D811D1124911D08950E94F61608F47E
:102D100081E008950E94221788F09F5798F0B92FFC
:102D20009927B751B0F0E1F0660F771F881F991F00
:102D30001AF0BA95C9F714C0B13091F00E943C174F
:102D4000B1E008950C943C17672F782F8827B85F5F
:102D500039F0B93FCCF3869577956795B395D9F758
:102D60003EF490958095709561957F4F8F4F9F4F62
:102D70000895E89409C097FB3EF49095809570956E
:102D800061957F4F8F4F9F4F9923A9F0F92F96E9B7
:102D9000BB279395F695879577956795B795F1112C
:102DA000F8CFFAF4BB0F11F460FF1BC06F5F7F4FC9
:102DB0008F4F9F4F16C0882311F096E911C07723DB
:102DC00021F09EE8872F762F05C0662371F096E8E4
:102DD000862F70E060E02AF09A95660F771F881FB3
:102DE000DAF7880F9695879597F90895990F000857
:102DF000550FAA0BE0E8FEEF16161706E807F907CD
:102E0000C0F012161306E407F50798F0621B730B67
:102E1000840B950B39F40A2661F0232B242B252BE8
:102E200021F408950A2609F4A140A6958FEF811D8B
:102E3000811D089557FD9058440F551F59F05F3F6D
:102E400071F04795880F97FB991F61F09F3F79F0CC
:102E500087950895121613061406551FF2CF46954E
:102E6000F1DF08C0161617061806991FF1CF8695D0
:102E70007105610508940895E894BB2766277727B4
:102E8000CB0197F908950E94F61608F48FEF089584
:102E90000E945B170C94CC170E94BE1738F00E945A
:102EA000C51720F0952311F00C94B5170C94BB179F
:102EB00011240C943D170E941A1770F3959FC1F3CB
:102EC000950F50E0551F629FF001729FBB27F00DD8
:102ED000B11D639FAA27F00DB11DAA1F649F66272D
:102EE000B00DA11D661F829F2227B00DA11D621F7C
:102EF000739FB00DA11D621F839FA00D611D221F36
:102F0000749F3327A00D611D231F849F600D211D19
:102F1000822F762F6A2F11249F5750409AF0F1F09C
:102F200088234AF0EE0FFF1FBB1F661F771F881F05
:102F300091505040A9F79E3F510580F00C94B51771
:102F40000C943D175F3FE4F3983ED4F38695779554
:102F50006795B795F795E7959F5FC1F7FE2B880FAB
:102F6000911D9695879597F9089597F99F6780E841
:102F700070E060E008959FEF80EC089500240A94CB
:102F80001616170618060906089500240A94121644
:102F90001306140605060895092E0394000C11F477
:102FA000882352F0BB0F40F4BF2B11F460FF04C024
:102FB0006F5F7F4F8F4F9F4F0895FB01DC010190A2
:102FC0000D920020E1F708950F931F93CF93DF93A5
:102FD000CDB7DEB72E970FB6F894DEBF0FBECDBFCC
:102FE0000E891F8986E08C831A8309838FEF9FE700
:102FF0009E838D83AE01465E5F4F688D798DCE01D5
:1030000001960E941318EF81F885E00FF11F1082DE
:103010002E960FB6F894DEBF0FBECDBFDF91CF91D5
:103020001F910F9108952F923F924F925F926F924E
:103030007F928F929F92AF92BF92CF92DF92EF9248
:10304000FF920F931F93CF93DF93CDB7DEB72B97EC
:103050000FB6F894DEBF0FBECDBF6C017B018A01B5
:10306000FC0117821682838181FFCCC1CE010196BB
:103070003C01F6019381F70193FD859193FF8191C6
:103080007F01882309F4BAC1853239F493FD859113
:1030900093FF81917F01853229F4B60190E00E946F
:1030A000331AE7CF912C212C312CFFE1F315D8F006
:1030B0008B3279F038F4803279F08332A1F4232D09
:1030C00020611DC08D3261F0803369F4232D2160B1
:1030D00016C0832D8260382EE32DE4603E2E2AC078
:1030E000F32DF8601DC037FC2DC020ED280F2A30CD
:1030F00040F08E32B9F436FC81C1232D2064322E8B
:1031000019C036FE06C08AE0989E200D1124922E2A
:1031100011C0EAE02E9E200D1124222EF32DF06224
:103120003F2E08C08C3621F4832D8068382E02C0D3
:10313000883641F4F70193FD859193FF81917F01DA
:103140008111B3CF982F9F7D9554933028F40C5F55
:103150001F4F9FE399830DC0833631F0833771F0A1
:10316000833509F059C021C0F801808189830E5F41
:103170001F4F88248394912C530113C02801F2E03F
:103180004F0E511CF801A080B18036FE03C0692D9E
:1031900070E002C06FEF7FEFC5010E94281A4C015A
:1031A0008201F32DFF773F2E16C0280122E0420E48
:1031B000511CF801A080B18036FE03C0692D70E07B
:1031C00002C06FEF7FEFC5010E941D1A4C01F32D65
:1031D000F0683F2E820133FC1BC0822D90E08816E0
:1031E0009906B0F4B60180E290E00E94331A2A9466
:1031F000F4CFF50137FC859137FE81915F01B6016F
:1032000090E00E94331A21102A9421E0821A91083A
:103210008114910471F7E8C0843611F0893641F5C4
:10322000F80137FE07C060817181828193810C5F54
:103230001F4F08C060817181072E000C880B990B0D
:103240000E5F1F4FF32DFF763F2E97FF09C090951D
:103250008095709561957F4F8F4F9F4FF0683F2EFF
:103260002AE030E0A3010E946F1A882E861845C01C
:10327000853731F4232D2F7EB22E2AE030E025C091
:10328000932D997FB92E8F36C1F018F4883579F0D7
:10329000B5C0803719F0883721F0B0C0E92FE06160
:1032A000BE2EB4FE0DC0FB2DF460BF2E09C034FE4F
:1032B0000AC0292F2660B22E06C028E030E005C0E3
:1032C00020E130E002C020E132E0F801B7FE07C0A3
:1032D00060817181828193810C5F1F4F06C0608184
:1032E000718180E090E00E5F1F4FA3010E946F1A72
:1032F000882E8618FB2DFF773F2E36FE0DC0232D1E
:103300002E7FA22E891458F434FE0BC032FC09C063
:10331000832D8E7EA82E05C0B82CA32C03C0B82CFC
:1033200001C0B92CA4FE0FC0FE01E80DF11D808183
:10333000803321F49A2D997EA92E09C0A2FE06C0E1
:10334000B394B39404C08A2D867809F0B394A3FC97
:1033500011C0A0FE06C0B21488F4280C922C9B1851
:103360000EC0B21460F4B60180E290E00E94331AFD
:10337000B394F7CFB21418F42B1802C0982C212C58
:10338000A4FE10C0B60180E390E00E94331AA2FEB2
:1033900017C0A1FC03C088E790E002C088E590E078
:1033A000B6010CC08A2D867859F0A1FE02C08BE2CE
:1033B00001C080E2A7FC8DE2B60190E00E94331AC2
:1033C000891438F4B60180E390E00E94331A9A948D
:1033D000F7CF8A94F301E80DF11D8081B60190E0EA
:1033E0000E94331A8110F5CF222009F442CEB60193
:1033F00080E290E00E94331A2A94F6CFF60186818B
:10340000978102C08FEF9FEF2B960FB6F894DEBF27
:103410000FBECDBFDF91CF911F910F91FF90EF9025
:10342000DF90CF90BF90AF909F908F907F906F90E4
:103430005F904F903F902F900895FC010590615050
:1034400070400110D8F7809590958E0F9F1F0895BA
:10345000FC016150704001900110D8F78095909563
:103460008E0F9F1F08950F931F93CF93DF93FB0140
:10347000238121FD03C08FEF9FEF2CC022FF16C0D8
:1034800046815781248135814217530744F4A08136
:10349000B1819D012F5F3F4F318320838C93268123
:1034A00037812F5F3F4F3783268314C08B01EC0198
:1034B000FB010084F185E02D1995892BE1F6D801F7
:1034C00016968D919C911797019617969C938E93C3
:1034D0001697CE01DF91CF911F910F910895FA01B8
:1034E000AA27283051F1203181F1E8946F936E7F43
:1034F0006E5F7F4F8F4F9F4FAF4FB1E03ED0B4E034
:103500003CD0670F781F891F9A1FA11D680F791F74
:103510008A1F911DA11D6A0F711D811D911DA11D85
:1035200020D009F468943F912AE0269F1124301995
:10353000305D3193DEF6CF010895462F4770405D30
:103540004193B3E00FD0C9F7F6CF462F4F70405DDF
:103550004A3318F0495D31FD4052419302D0A9F73A
:10356000EACFB4E0A6959795879577956795BA9534
:10357000C9F700976105710508959B01AC010A2EFA
:1035800006945795479537952795BA95C9F7620FD1
:0E359000731F841F951FA01D0895F894FFCF90
:10359E00280028000A000A000A009B009B0016184B
:1035AE001A01005220407374617274656440000009
:1035BE00407374617274656440000020404841207D
:1035CE007265616368656440000020404842207265
:1035DE006561636865644000002040484320726561
:1035EE0061636865642C205461736B206163636F43
:1035FE006D706C6973686564214000002A2A2A2068
:10360E0053544152544544202A2A2A0A0053656EC7
:10361E00736F725F313A2564200A53656E736F7251
:10362E005F323A2564200A53656E736F725F333AC8
:10363E002564200A00206C656674203A20256420DB
:10364E007269676874203A202564200A00496E6901
:10365E007469616C697A696E67204C46410A00256F
:0A366E0064000A4C4641413A000096
:040000050080021164
:00000001FF
