:100000000C9472000C9493000C9493000C94930045
:100010000C9493000C9493000C9493000C94930014
:100020000C9493000C9493000C9493000C94930004
:100030000C9493000C9493000C9493000C949300F4
:100040000C9493000C9493000C9493000C949300E4
:100050000C9493000C94B6100C9493000C949300A1
:100060000C9493000C9495000C94CE000C94930087
:100070000C9493000C9493000C9493000C949300B4
:100080000C9493000C9493000C9493000C949300A4
:100090000C9493000C9493000C9493000C94930094
:1000A0000C9493000C9493000C9493000C94930084
:1000B0000C9493000C9493000C9493000C94930074
:1000C0000C9493000C9493000C9493000C94930064
:1000D0000C9493000C9493000C9493000C94930054
:1000E0000C94930011241FBECFEFD1E2DEBFCDBF31
:1000F00000E00CBF12E0A0E0B2E0E6EEF2E300E0C8
:100100000BBF02C007900D92A634B107D9F724E0C7
:10011000A6E4B2E001C01D92A439B207E1F70E9443
:100120008A140C9471190C9400001F920F920FB650
:100130000F9211240BB60F922F933F934F935F931F
:100140008F939F93EF93FF932091C0003091C6004F
:1001500028718091480290E001968F77992740910D
:10016000470250E08417950739F080934802FC015C
:10017000E55BFD4F308301C022E020934602FF91F2
:10018000EF919F918F915F914F913F912F910F90A0
:100190000BBE0F900FBE0F901F9018951F920F92DD
:1001A0000FB60F9211240BB60F928F939F93EF937C
:1001B000FF9390914A0280914902981779F08091BB
:1001C000490290E001968F77992780934902FC01BC
:1001D000E553FD4F80818093C60005C08091C1002A
:1001E0008F7D8093C100FF91EF919F918F910F9030
:1001F0000BBE0F900FBE0F901F901895F8941092A1
:100200004A021092490210924802109247027894D2
:1002100097FF04C022E02093C0009F779093C50011
:100220008093C40088E98093C10086E08093C20077
:100230000895F8949091480280914702981304C061
:10024000789480E091E0089578948091470290E05E
:1002500001968F77992780934702FC01E55BFD4F5C
:1002600020818091460290E0982F8827820F911D6F
:100270000895F8949091480280914702981304C021
:10028000789480E091E008957894E0914702F0E05E
:100290003196EF77FF27E55BFD4F20818091460285
:1002A00090E0982F8827820F911D089520914A028F
:1002B00030E02F5F3F4F2F7733274091490250E0C6
:1002C00024173507D1F3F901E553FD4F80832093BF
:1002D0004A028091C10080628093C1000895CF934B
:1002E000DF93EC018991882319F00E945601FACF1F
:1002F000DF91CF910895CF93DF93FC018491EF01BB
:100300002196882321F00E945601FE01F7CFDF914C
:10031000CF910895F89480914802209147027894F3
:1003200090E080589F4F821B91098F7799270895FD
:10033000F8948091470280934802789408950F932F
:100340001F930097C9F0AC014150510960E070E083
:1003500080E090E08A019B010027012B022B032BF8
:1003600031F076956795579547950196F3CF982F7D
:100370008827842B952B02C080E090E01F910F917D
:100380000895CF93DF93D82FC62F809100020E944B
:1003900000118D2F0E9453118C2F0E945311DF9159
:1003A000CF910C944B111F93CF93DF93182FEB0138
:1003B000809100020E940011812F0E9453118D2F05
:1003C0000E9453118C2F0E945311DF91CF911F91E6
:1003D0000C944B11FF920F931F93CF93DF93F82E42
:1003E000EA01162F072F809100020E9400118F2D25
:1003F0000E945311802F0E945311812F0E9453118C
:100400008D2F0E9453118C2F0E945311DF91CF9199
:100410001F910F91FF900C944B11CF93C82F809197
:1004200000020E9400118C2F0E9453118091000243
:1004300081600E9449110E946E11C82F0E944B11C9
:100440008C2FCF910895CF93DF93C82F8091000216
:100450000E9400118C2F0E94531180910002816034
:100460000E9449110E946411C82FD0E0DC2FCC27D4
:100470000E946E11C82B0E944B11CE01DF91CF91CB
:100480000895CF92DF92EF92FF92CF93C82F809181
:1004900000020E9400118C2F0E94531180910002D3
:1004A00081600E9449110E946411C82ED12CE12C58
:1004B000F12CFC2CEE24DD24CC240E946411E82ACB
:1004C0000E946411C82F0E946E11C82ADC2A0E9463
:1004D0004B11C701B601CF91FF90EF90DF90CF9005
:1004E0000895FF920F931F93CF93DF93182FF62E4B
:1004F000D72FC42F809100020E940011812F0E94EB
:1005000053110F2D1D2FCC2339F0F80181918F014C
:100510000E945311C150F7CFDF91CF911F910F91DE
:10052000FF900C944B11FF920F931F93CF93DF9387
:10053000C82FF62E072F142F809100020E94001161
:100540008C2F0E9453118091000281600E944911FA
:10055000CF2DD02F112359F0123018F00E946411C2
:1005600002C00E946E11888311502196F3CFDF9153
:10057000CF911F910F91FF900C944B11CF93C82FE7
:10058000682F66958AE80E94C101C0930002CF914E
:100590000895809100020895CF92DF92EF92FF922A
:1005A0006B017C0120E030E0A9010E94301587FD3D
:1005B00019C028EB3EEF4FEF53E4C701B6010E948C
:1005C000EE1518167CF020E030E040E053E4C7015F
:1005D000B6010E94F3150E94351584E40E94D301F0
:1005E00081E001C080E0FF90EF90DF90CF90089510
:1005F00084E40E942302BC0180E090E00E94641524
:1006000020E030E040E05CE30E94F315089500979D
:1006100011F480E503C0019731F480E70E940D02D8
:100620008F5F880F08958FEF0895CF92DF92EF923A
:10063000FF926B017C0161E080E80E94C10161E0F2
:100640008FEF0E94C10160E080E00E94C1016091D3
:10065000550381E90E94C10161E080E00E94C1016F
:1006600060E08FEF0E94C10160E080E80E94C1015C
:10067000C114D104E104F10499F088EF0E9423022F
:10068000009739F0DC01A70196010E94F1146B017B
:100690007C01B701A60184E00E94EA0164E001C088
:1006A00062E080E0FF90EF90DF90CF900C94C1016A
:1006B00061E080E00E94C10161E08FEF0E94C10112
:1006C00060E080E00E94C10160E081E90E94C10118
:1006D00061E080E00E94C10160E08FEF0C94C101F5
:1006E000EF92FF920F931F93CF93DF93CDB7DEB7B7
:1006F0002C970FB6F894DEBF0FBECDBF7C010E94D1
:10070000AA10709354036093530383E10E940D0277
:100710008770D9F480914C0390914D03892BA9F3F4
:100720000E94AA102091530330915403621B730B53
:1007300080914C0390914D038617970730F781E025
:1007400080934B038FEF9FEF36C0E114F10429F43F
:100750008EE10E9423028C0129C04CE0BE016F5F34
:100760007F4F84E10E9493028981869586958695C4
:10077000F70180878B819C81982789279827978309
:1007800086838F81988598278927982793838283EA
:1007900089859A85982789279827958384830B854F
:1007A0001C851027012710271183008361E08BE04F
:1007B0000E94C101C8012C960FB6F894DEBF0FBE8F
:1007C000CDBFDF91CF911F910F91FF90EF900895D2
:1007D000CF93DF93EC0161E080E80E94C10161E00A
:1007E0008FEF0E94C10160E080E00E94C101609132
:1007F000550381E90E94C10161E080E00E94C101CE
:1008000060E08FEF0E94C10160E080E80E94C101BA
:1008100061E080E00E94C1010E94AA10709354031D
:100820006093530380E00E940D0280FF1DC0809101
:100830004C0390914D03892BA9F30E94AA1020919B
:10084000530330915403621B730B80914C039091BE
:100850004D038617970730F781E080934B038FEFA6
:100860009FEFDF91CF910895CE01DF91CF910C944E
:10087000700380914B0310924B03089590934D03A6
:1008800080934C03089580914C0390914D030895FB
:10089000EF92FF920F931F93CF937C018B0161E046
:1008A00080E80E94C10161E08FEF0E94C10160E019
:1008B00080E00E94C10166E08FEF0E94C10183E8E1
:1008C0000E940D02682F646083E80E94C10167E006
:1008D0008FEF0E94C10161E081E80E94C10161E0E7
:1008E00080E80E94C1016BE684E90E94C10160E0DA
:1008F00083E80E94C1010E94AA1070935403609380
:10090000530383E80E940D02C82F811116C0809105
:100910004C0390914D03892BA1F30E94AA102091C2
:10092000530330915403621B730B80914C039091DD
:100930004D038617970728F731C061E083E80E94CE
:10094000C10182E90E940D02982F9F77F7019083E1
:10095000881F8827881FF801808360E081E80E9453
:10096000C10166E08FEF0E94C10183E80E940D0281
:10097000682F6B7F83E80E94C10161E08FEF0E94C6
:10098000C10161E080E00E94C10160E08FEF0E9440
:10099000C10160E080E80E94C101C1E08C2FCF91CD
:1009A0001F910F91FF90EF900895CF93DF93EC018B
:1009B00081E00E940D0284FB992790F9988383FBC4
:1009C000992790F99A8382FB992790F9998386FB5E
:1009D000992790F99B83881F8827881F8C83DF9134
:1009E000CF9108952F923F924F925F926F927F9294
:1009F0008F929F92AF92BF92CF92DF92EF92FF922F
:100A00000F931F93CF93DF9300D000D0CDB7DEB705
:100A10001C017E836D8380E090E00E94070390E0DC
:100A2000ED81FE819183808386E40E940D02682E11
:100A3000712CFFEF6F1A7F0AED81FE81758264824F
:100A4000A081B0E020E03FE24AE350E00E94F114D0
:100A50004B015C01F4EF8F0EF1E09F1EA11CB11C55
:100A600098EEC92E93E0D92EE12CF12CC501B401EA
:100A7000A70196010E94CF14D3010E94FC14698340
:100A80007A838B839C8320ED422E27E0522E612CAB
:100A9000712CC501B401A30192010E94CF14698198
:100AA0007A818B819C81620F731F841F951FA70120
:100AB00096010E94CF14ED81FE81228733874487FF
:100AC000558781E50E9423028C01112702C0000F87
:100AD000111F9A95E2F70F5F1F4FED81FE8117837B
:100AE0000683A081B0E020E03FE24AE350E00E94AC
:100AF000F1144B015C01F4EF8F0EF1E09F1EA11C7D
:100B0000B11CC501B401A70196010E94CF14D80100
:100B10000E94F11469837A838B839C83C501B4019D
:100B2000A30192010E94CF1469817A818B819C81FB
:100B3000620F731F841F951FA70196010E94CF1497
:100B4000ED81FE8126873787408B518B80E70E949D
:100B50000D028F5F880F90E0ED81FE819383828389
:100B600081E70E9423029C01992702C0880F991FE8
:100B70003A95E2F70196ED81FE8191878087F10138
:100B80002381222341F0ED81FE8126813781821B62
:100B9000930B91878087ED81FE81A281B0E020E0F8
:100BA0003FE24AE350E00E94F1146B017C01F4EF54
:100BB000CF0EF1E0DF1EE11CF11C88EE882E83E0F1
:100BC000982EA12CB12CC701B601A50194010E9459
:100BD000CF14ED81FE81A085B1850E94F1142B0117
:100BE0003C01C701B60120ED37E040E050E00E9433
:100BF000CF14C301B201620F731F841F951FA5019B
:100C000094010E94CF14ED81FE81228B338B448BA3
:100C1000558B26960FB6F894DEBF0FBECDBFDF9181
:100C2000CF911F910F91FF90EF90DF90CF90BF90E9
:100C3000AF909F908F907F906F905F904F903F907C
:100C40002F9008954F925F926F927F928F929F9212
:100C5000AF92BF92CF92DF92EF92FF921F93CF930A
:100C6000DF93CDB7DEB76B970FB6F894DEBF0FBE3C
:100C7000CDBF60322EE472078105910508F4A8C04B
:100C80006B017C01CE0147960E94D504BE016F5FC7
:100C90007F4FCE0147960E94F2048F89882349F046
:100CA0008B859C85AD85BE858A5C944FAF4FBF4FC9
:100CB00004C088EE98E0A0E0B0E0298D222369F01E
:100CC0004B855C856D857E854E545D4F6F4F7F4FA4
:100CD000440F551F661F771F0BC0288D222361F01C
:100CE0004B855C856D857E854C565D4F6F4F7F4F84
:100CF000840F951FA61FB71F1A8D112361F04F8512
:100D0000588969897A894C565D4F6F4F7F4F840FA0
:100D1000951FA61FB71F2B8D222309F457C02C0146
:100D20003D0126E2420E22E0521E611C711CC414D9
:100D3000D504E604F70408F44BC0AB81B0E020E032
:100D40003FE24AE350E00E94F1144B015C0124EFC2
:100D5000820E21E0921EA11CB11CA701960124194C
:100D6000350946095709A8EEB3E00E94F1142B019A
:100D70003C01C501B40120ED37E040E050E00E94A5
:100D8000CF14420E531E641E751EC501B40128EE19
:100D900033E040E050E00E94CF14C301B2010E9452
:100DA000CF14C901112321F08F819885820F931FE1
:100DB0000E949F01BC0181E70E94D301C0925603AB
:100DC000D0925703E0925803F092590381E001C09A
:100DD00080E06B960FB6F894DEBF0FBECDBFDF91FB
:100DE000CF911F91FF90EF90DF90CF90BF90AF9089
:100DF0009F908F907F906F905F904F9008950F938A
:100E00001F93CF93DF93CDB7DEB76B970FB6F894F0
:100E1000DEBF0FBECDBFCE0147960E94D504BE01F6
:100E20006F5F7F4FCE0147960E94F2048F8988231F
:100E300059F08B859C85AD85BE85BC01CD016C5775
:100E4000724F8F4F9F4F04C066E37BE080E090E0DD
:100E5000298D222369F00B851C852D853E850E5436
:100E60001D4F2F4F3F4F000F111F221F331F0BC06D
:100E7000288D222361F00B851C852D853E850C561F
:100E80001D4F2F4F3F4F600F711F821F931F2A8DE1
:100E9000222361F00F85188929893A890C561D4F44
:100EA0002F4F3F4F600F711F821F931F2B8D2223E7
:100EB00061F00B891C892D893E890A5D1D4F2F4FDA
:100EC0003F4F600F711F821F931F609356037093F3
:100ED000570380935803909359036B960FB6F89479
:100EE000DEBF0FBECDBFDF91CF911F910F9108954F
:100EF000CF93682F616080E00E94C1010E94AA1018
:100F0000709354036093530383E10E940D02C82F32
:100F1000C770B1F480914C0390914D03892BA1F3DC
:100F20000E94AA102091530330915403621B730B4B
:100F300080914C0390914D038617970728F709C0BD
:100F400061E08BE00E94C10160E080E00E94C1018D
:100F5000C1E08C2FCF910895CF93DF93CDB7DEB74B
:100F600028970FB6F894DEBF0FBECDBF882341F09F
:100F700089E80E940D02682F616089E80E94C10122
:100F800060E088E80E94C10161E080E80E94C10140
:100F900061E08FEF0E94C10160E080E00E94C1012A
:100FA00081E90E940D028093550361E080E00E9478
:100FB000C10160E08FEF0E94C10160E080E80E9403
:100FC000C10180E60E940D02682F626180E60E94E6
:100FD000C10160E270E084E40E94D3016FEF81E020
:100FE0000E94C101BE01695F7F4FCE0108960E9439
:100FF0004804811102C080E0D4C146E0BE016F5FA9
:101000007F4F80EB0E94930261E08FEF0E94C1014D
:1010100060E08FE40E94C1016CE28EE40E94C10195
:1010200060E08FEF0E94C10164EB86EB0E94C1017A
:101030008F81811102C040E001C04CE0A88580E0B2
:1010400090E061E070E0282F269526952695582F90
:101050005770E1E0F0E0EC0FFD1FE20FF11D841787
:1010600010F0A9130AC09B0101C0220F5A95EAF79C
:10107000209530812323208309C0208130E002C0E5
:10108000359527955A95E2F720FD9F5F8F5F803356
:10109000D1F646E0BE016F5F7F4F80EB0E94710288
:1010A00061E08FEF0E94C10160E080E00E94C10119
:1010B00060E08FEF0E94C10160E089E00E94C10101
:1010C00060E080E10E94C10160E081E10E94C10115
:1010D00061E084E20E94C1016FEF85E20E94C101DC
:1010E00060E085E70E94C10161E08FEF0E94C101CD
:1010F0006CE28EE40E94C10160E088E40E94C101BC
:1011000060E280E30E94C10160E08FEF0E94C101B4
:1011100069E080E30E94C10160E084E50E94C101B2
:1011200064E081E30E94C10163E082E30E94C101A7
:1011300063E880E40E94C10165E286E40E94C10187
:1011400060E080E60E94C10160E087E20E94C10188
:1011500066E080E50E94C10160E081E50E94C10176
:1011600066E982E50E94C10168E086E50E94C1014E
:1011700060E387E50E94C10160E081E60E94C10151
:1011800060E082E60E94C10160E084E60E94C10145
:1011900060E085E60E94C10160EA86E60E94C10126
:1011A00061E08FEF0E94C10162E382E20E94C1010F
:1011B00064E187E40E94C1016FEF89E40E94C101EC
:1011C00060E08AE40E94C10160E08FEF0E94C101EB
:1011D0006AE08AE70E94C10160E08BE70E94C101DA
:1011E00061E288E70E94C10161E08FEF0E94C101C6
:1011F00064E383E20E94C10160E082E40E94C101D5
:101200006FEF84E40E94C10166E285E40E94C1019F
:1012100065E086E40E94C10160E480E40E94C101AF
:1012200066E08EE00E94C1016AE180E20E94C10195
:1012300060E483E40E94C10160E08FEF0E94C1017D
:1012400063E084E30E94C10164E485E30E94C1017C
:1012500061E08FEF0E94C10164E081E30E94C1015F
:1012600069E08BE40E94C10165E08CE40E94C10149
:1012700064E08DE40E94C10160E08FEF0E94C10133
:1012800060E084E40E94C10160E285E40E94C10143
:1012900068E087E40E94C10168E288E40E94C1011D
:1012A00060E087E60E94C10164E080E70E94C1011E
:1012B00061E081E70E94C1016EEF82E70E94C101F7
:1012C00060E086E70E94C10160E087E70E94C101FB
:1012D00061E08FEF0E94C10161E08DE00E94C101D9
:1012E00060E08FEF0E94C10161E080E80E94C101CF
:1012F00068EF81E00E94C10161E08FEF0E94C101AF
:1013000061E08EE80E94C10161E080E00E94C101BD
:1013100060E08FEF0E94C10160E080E80E94C1019F
:1013200064E08AE00E94C10184E80E940D02682FF7
:101330006F7E84E80E94C10161E08BE00E94C101E0
:101340000E94FF06609356037093570380935803DF
:101350009093590368EE81E00E94C10160915603A9
:101360007091570380915803909159030E9422066F
:1013700061E081E00E94C10180E40E947807882337
:1013800009F439CE62E081E00E94C10180E00E9450
:101390007807882309F42FCE68EE81E00E94C1010E
:1013A00081E028960FB6F894DEBF0FBECDBFDF9167
:1013B000CF9108958F929F92AF92BF92CF92DF927A
:1013C000EF92FF921F93CF93DF93CDB7DEB76B976A
:1013D0000FB6F894DEBF0FBECDBF6C01162FF62EF0
:1013E000F694FA94CE0147960E94D504BE016F5F31
:1013F0007F4FCE0147960E94F204C114D10409F038
:1014000072C01E3069F028F41C3009F028C168E170
:101410000AC0103139F0123109F021C160E503C072
:1014200060E301C060E487E50E94C10168E086E5F1
:101430000E94C1016F2D80E50E94C101A12FB0E083
:1014400020E03FE24AE350E00E94F1146B017C018E
:1014500024EFC20E21E0D21EE11CF11CC701B6012F
:1014600028EE33E040E050E00E94CF1449015A01D9
:10147000C701B60120ED37E040E050E00E94CF14F4
:1014800069017A012F85388949895A89A8EEB3E024
:101490000E94F1146C0D7D1D8E1D9F1DA5019401F0
:1014A0000E94CF14C9010E949F01BC0181E50E94E6
:1014B000D3012B853C854D855E85A8EEB3E00E9467
:1014C000F1146C0D7D1D8E1D9F1DA50194010E94C0
:1014D000CF146FEF213081E0380708F4620F86E403
:1014E0000E94C101A1C0CA94CD2809F0B8C01A3029
:1014F00069F1C8F4183009F0B2C060E188E40E94D4
:10150000C10168E087E40E94C10162E082E30E94B9
:10151000C1016CE080E30E94C10161E08FEF0E9495
:10152000C10160E336C01C30F9F01E3009F097C0ED
:1015300068E488E40E94C10168E087E40E94C10178
:1015400063E082E30E94C10167E01BC068E288E4B7
:101550000E94C10168E087E40E94C10163E082E368
:101560000E94C10169E00DC068E388E40E94C101E6
:1015700068E087E40E94C10163E082E30E94C10148
:1015800068E080E30E94C10161E08FEF0E94C10129
:1015900060E280E30E94C10160E08FEF0E94C10120
:1015A0006F2D80E70E94C101A12FB0E020E03FE253
:1015B0004AE350E00E94F1146B017C0124EFC20E5B
:1015C00021E0D21EE11CF11C2B893C894D895E89EA
:1015D000A8EEB3E00E94F1144B015C01C701B60113
:1015E00020ED37E040E050E00E94CF14820E931EC1
:1015F000A41EB51EC701B60128EE33E040E050E05E
:101600000E94CF14C501B4010E94CF14C9016A8D94
:10161000662321F08F819885820F931F0E949F017E
:10162000BC0181E70E94D30160915603709157037A
:1016300080915803909159030E94220681E00E94F4
:101640000D02182F62E081E00E94C10180E00E943B
:101650007807612F81E00E94C10181E001C080E034
:101660006B960FB6F894DEBF0FBECDBFDF91CF9162
:101670001F91FF90EF90DF90CF90BF90AF909F9021
:101680008F900895F894A1EAB0E01C928FEF8093B8
:10169000A5001092A4001092A9001092A800109228
:1016A000AB001092AA001092AD001092AC00E0EADC
:1016B000F0E08081886A808380818B7A808380815A
:1016C0008160808380818D7F80838C9188608C9302
:1016D0008C9183608C938C918B7F8C9378940895FC
:1016E000F894A1E2B1E01C928FEF80932501109253
:1016F0002401109229011092280110922B011092BE
:101700002A0110922D0110922C01E0E2F1E080817B
:10171000886A808380818B7A8083808181608083E6
:1017200080818D7F80838C9188608C938C91836085
:101730008C938C918B7F8C9378940895F89415BC3E
:101740008FEF86BD17BC18BC84B5806A84BD84B594
:101750008F7A84BD84B5816084BD84B58D7F84BD5E
:1017600085B5886085BD85B5836085BD85B58B7F72
:1017700085BD789408950E941901911102C08111CC
:1017800008958FEF08950F931F93CF93DF938C01EC
:101790000E94BB0B8F3F09F4FFCFE80189930E94A1
:1017A000BB0B182F1A3029F0812F0E945601199374
:1017B000F9CFDF91CF911F910F910895E1E0F1E012
:1017C000808188638083E2E0F1E0808188638083A8
:1017D0008FEF8093A8008093AC008093AA00809341
:1017E000280108951092A8008FEF8093AC00809399
:1017F000AA008093280108958FEF8093A80010928B
:10180000AC008093AA008093280108958FEF809305
:10181000A8008093AC008093AA00809328010895CB
:101820000C94060CEF92FF920F931F93CF93DF93CC
:101830007C018B01C0E0D0E0CE15DF0534F50E94BD
:10184000FC0B80E090E0801791075CF42FEF31EE05
:1018500044E0215030404040E1F700C000000196D4
:10186000F2CF0E94060C80E090E0801791075CF4B4
:101870002FEF31EE44E0215030404040E1F700C00E
:1018800000000196F2CF2196D7CFDF91CF911F9123
:101890000F91FF90EF900895EF92FF920F931F9397
:1018A000CF93DF937C018B01C0E0D0E0CE15DF0544
:1018B00034F50E94F20B80E090E0801791075CF411
:1018C0002FEF31EE44E0215030404040E1F700C0BE
:1018D00000000196F2CF0E94060C80E090E0801795
:1018E00091075CF42FEF31EE44E02150304040404E
:1018F000E1F700C000000196F2CF2196D7CFDF912B
:10190000CF911F910F91FF90EF900895EF92FF926A
:101910000F931F93CF93DF937C018B01C0E0D0E046
:10192000CE15DF0544F50E94FC0B0E94F20B80E00F
:1019300090E0801791075CF42FEF31EE44E02150E6
:1019400030404040E1F700C000000196F2CF0E9415
:10195000060C80E090E0801791075CF42FEF31EEE9
:1019600044E0215030404040E1F700C000000196C3
:10197000F2CF2196D5CFDF91CF911F910F91FF909C
:10198000EF90089541B121E030E0F90102C0EE0F7F
:10199000FF1F8A95E2F7CF014E2B41B991B101C0EB
:1019A000220F6A95EAF72095292321B992B18095F3
:1019B000892382B982B10895CF93DF93D82FC62FA0
:1019C0000E94C20C1092B1001092B0001092B200AE
:1019D00042B121E030E0C90101C0880FDA95EAF791
:1019E000982F9095942392B945E34A95F1F700001A
:1019F00092B1892B82B902C0220F331FCA95E2F738
:101A000080B190E082239323892BD1F31092B2000E
:101A10008091B10087608093B10080B190E0822313
:101A20009323892BD1F71092B1006091B20070E03E
:101A300080E090E00E94661529E134E046E251E43E
:101A40000E94F3150E943515DF91CF9108956F9292
:101A50007F928F929F92AF92BF92CF92DF92EF923E
:101A6000FF920F931F93CF93DF93EC014B0188E01C
:101A7000682E712CA12CB12CC12CD12CE12CF12C75
:101A800000E010E0B401CE010E94270D9C01932FCD
:101A9000990F990B492F592F692F792F892F0E9460
:101AA000041559016A017B018C0181E0681A7108F3
:101AB00049F7C501DF91CF911F910F91FF90EF90F2
:101AC000DF90CF90BF90AF909F908F907F906F905E
:101AD0000895EF92FF920F931F93CF93DF93EC0142
:101AE00062E070E080E090E00E94DC0C162F072F8F
:101AF00067E070E085E090E00E94DC0CF62EE72EB7
:101B000063E070E081E090E00E94DC0C7F936F93D3
:101B1000EF92FF920F931F9389E092E09F938F9330
:101B2000DF93CF930E9488168DB79EB70A960FB6A3
:101B3000F8949EBF0FBE8DBFDF91CF911F910F9183
:101B4000FF90EF900895EAE0F1E080818863808360
:101B5000EBE0F1E0808188638083E1E0F1E0808167
:101B600080618083E2E0F1E080818061808308957C
:101B700010922C01109228011092AA0010922A01B2
:101B80000895E7E0F2E0808180932C0110922A0111
:101B90001092280180818093AA00089510922C0150
:101BA000E7E0F2E0808180932A0180818093280120
:101BB0001092AA000895E7E0F2E0808180932C0162
:101BC00010922A018081809328011092AA00089522
:101BD00010922C01E7E0F2E08081885280932A0184
:101BE00010922801808188528093AA000895209144
:101BF000070220932C0110922A01109228011092C2
:101C0000AA0020E030E0281739074CF4EFE3FCE9A4
:101C10003197F1F700C000002F5F3F4FF4CF0C94D5
:101C2000B80D10922C0110922A01209107022093E6
:101C300028011092AA0020E030E0281739074CF460
:101C4000EFE3FCE93197F1F700C000002F5F3F4F51
:101C5000F4CF0C94B80DCF93DF93EC010E94DB0D11
:101C600080E090E08C179D0744F4EFE3FCE93197A6
:101C7000F1F700C000000196F5CFDF91CF910C94F1
:101C8000B80DAC018091070280932C0110922A01BB
:101C9000909107029E56909328011092AA0020E08E
:101CA00030E0241735074CF48FE39CE90197F1F7F6
:101CB00000C000002F5F3F4FF4CF0C94B80DAC0173
:101CC000909107029E5690932C0110922A018091C8
:101CD0000702809328011092AA0020E030E0241728
:101CE00035074CF48FE39CE90197F1F700C0000041
:101CF0002F5F3F4FF4CF0C94B80DCF93DF93EC01DF
:101D00000E94E80D80E090E08C179D0744F4EFE31B
:101D1000FCE93197F1F700C000000196F5CFDF91A3
:101D2000CF910C94B80DCF93DF93EC010E94C10DBD
:101D300080E090E08C179D0744F4EFE3FCE93197D5
:101D4000F1F700C000000196F5CFDF91CF910C9420
:101D5000B80DCF93DF93EC010E94CE0D80E090E0B0
:101D60008C179D0744F4EFE3FCE93197F1F700C0CD
:101D700000000196F5CFDF91CF910C94B80D209122
:101D8000030220932C0110922A0120910502209336
:101D900028011092AA0020E030E02817390764F4E7
:101DA0004FEF51EE64E0415050406040E1F700C019
:101DB00000002F5F3F4FF1CF0C94B80D68177907E3
:101DC0002CF49C01261B370BB90102C0681B790B50
:101DD00081E090E06417750714F480E090E00895C6
:101DE00010922C0110922A01109228018091070272
:101DF0008093AA00089510922C018091070280938D
:101E00002A01109228011092AA00089510922C0124
:101E100010922A0110922801209107022093AA0013
:101E200020E030E0281739074CF4EFE3FCE9319764
:101E3000F1F700C000002F5F3F4FF4CF0C94B80DB6
:101E400010922C012091070220932A011092280160
:101E50001092AA0020E030E0281739074CF4EFE395
:101E6000FCE93197F1F700C000002F5F3F4FF4CF3E
:101E70000C94B80D63E070E081E090E00E94DC0C0F
:101E800070935B0360935A0362E070E080E090E03F
:101E90000E94DC0CE8ECF0E0CB01BF010E94BB1417
:101EA0009C019093C1038093C00380915A03909149
:101EB0005B03BF010E94BB1490935B0380935A03A2
:101EC0008217930724F481E090E00E94060F20918E
:101ED000C0033091C10380915A0390915B0328178E
:101EE000390724F481E090E00E94200F60915A03AA
:101EF00070915B034AE050E08091C0039091C10370
:101F00000E94DE0E892B21F082E090E00C947D0E81
:101F10000895CF92DF92EF92FF9263E070E081E04C
:101F200090E00E94DC0C7093C1036093C00362E0F8
:101F300070E080E090E00E94DC0C6B017C018091FD
:101F4000C0039091C103E8ECF0E0BF010E94BB1414
:101F50009C019093C1038093C003C601BF010E94FE
:101F6000BB1490935B0380935A038217930724F466
:101F700085E090E00E94F70D2091C0033091C103ED
:101F800080915A0390915B032817390724F485E068
:101F900090E00E94110E60915A0370915B034EE134
:101FA00050E08091C0039091C1030E94DE0E892B06
:101FB00041F088E090E0FF90EF90DF90CF900C949C
:101FC0002B0EFF90EF90DF90CF90089567E070E0C8
:101FD00085E090E00E94DC0C685C710970939304CA
:101FE0006093920488E490E00E942B0E0E94B80D4A
:101FF00062E070E081E090E00C94860C67E070E0B5
:1020000085E090E00E94DC0C605A710970939304A3
:102010006093920488E290E00E94930E0E94B80DB3
:1020200062E070E081E090E00C94860C67E070E084
:1020300085E090E00E94DC0C605A71097093930473
:102040006093920485E290E00E94A90E0E94B80D70
:1020500062E070E081E090E00C94860C89E292E00E
:102060000E946F010E9489116FEF80E00E94A5110C
:1020700060E080E00E94B41140E060E080E00E94F7
:10208000931240E061E080E00C949312CF93DF93D1
:10209000CDB7DEB7A8970FB6F894DEBF0FBECDBFA1
:1020A0000BE312E05E0185E1A80EB11CCE010196A2
:1020B0007C0180E00E94FC12D82E1F928F931F9308
:1020C0000F93BF92AF920E9488168EE392E00E9417
:1020D0006F011F92DF921F930F93FF92EF920E9466
:1020E0008816C7010E946F010FB6F894DEBF0FBEBD
:1020F000CDBFDFCF0E94700B0E94420B0E94A30D48
:102100000E94DE0B0E942E100C94B80DCF93DF932B
:10211000EC01209799F087E294E00E94690D87E234
:1021200094E00E946F012FEF89E698E121508040F2
:102130009040E1F700C000002197EBCFDF91CF91F5
:10214000089582E084BD95E095BD9AE797BD8093A0
:102150006E0008952FB7F89460914E0370914F036D
:1021600080915003909151032FBF08951F920F92B9
:102170000FB60F9211248F939F93AF93BF938091CB
:102180004E0390914F03A0915003B09151030796D5
:10219000A11DB11D80934E0390934F03A093500354
:1021A000B0935103809152039DE6980F9D3718F428
:1021B0009093520316C080518093520380914E0336
:1021C00090914F03A0915003B09151030196A11D2E
:1021D000B11D80934E0390934F03A0935003B0938F
:1021E0005103BF91AF919F918F910F900FBE0F90B0
:1021F0001F9018951092B90080EC8093B800089554
:1022000094EA9093BC009091BC0097FFFCCF909112
:10221000B900987F983021F0903111F081E0089555
:102220008093BB0084E88093BC008091BC0087FF52
:10223000FCCF8091B900887F883111F0803471F72C
:1022400080E0089524EA34E844E92093BC009091AA
:10225000BC0097FFFCCF9091B900987F983011F0A7
:10226000903199F78093BB003093BC009091BC00F3
:1022700097FFFCCF9091B900987F903211F098357C
:1022800039F44093BC009091BC0094FDFCCFDDCFAD
:1022900008950C94001184E98093BC008091BC00E7
:1022A00084FDFCCF08958093BB0084E88093BC003C
:1022B0008091BC0087FFFCCF9091B900987F81E0AE
:1022C000983209F480E0089584EC8093BC008091FA
:1022D000BC0087FFFCCF8091BB00089584E8809309
:1022E000BC008091BC0087FFFCCF8091BB000895AB
:1022F000CF93DF93D62FC42F805C0E9422118D2FA5
:102300000E9453118C2F0E945311DF91CF910C9496
:102310004B11CF93DF930E94FA1083E08A95F1F777
:102320000000CDE8D4E018828FEF89838A831B8276
:102330001C824981888160E00E9478114A818881ED
:1023400061E0DF91CF910C947811823060F495E0D8
:10235000899FF0011124E357FB4F61834181808104
:1023600060E00C9478110895823060F495E0899FC4
:10237000F0011124E357FB4F62834281808161E0C9
:102380000C9478110895823018F5A82FB0E095E0EC
:10239000899FF0011124E357FB4F218181E090E0F8
:1023A00001C0880F6A95EAF7411103C08095822326
:1023B00001C0822B95E09A9FF0019B9FF00D1124A4
:1023C000E357FB4F81834181808160E00C94781159
:1023D0000895823018F5A82FB0E095E0899FF001AC
:1023E0001124E357FB4F228181E090E001C0880F68
:1023F0006A95EAF7411103C08095822301C0822BC0
:1024000095E09A9FF0019B9FF00D1124E357FB4F3D
:1024100082834281808161E00C947811089582303A
:1024200060F495E0899FF0011124E357FB4F63832B
:102430004381808162E10C9478110895823060F4C8
:1024400095E0899FF0011124E357FB4F6483448199
:10245000808163E10C94781108951F93CF93DF93EB
:10246000162FD42FC52F805C0E942211812F0E942D
:1024700053118D2F0E9453118C2F0E945311DF9105
:10248000CF911F910C944B11CF93DF93C82FD62F70
:1024900080E48C0F0E9422118D2F0E94531181E441
:1024A0008C0F0E9449110E946E11C82F0E944B117F
:1024B0008C2FDF91CF9108950F931F93CF93DF93CC
:1024C000823060F5142F062FC82FD0E095E0899F49
:1024D000F0011124E357FB4F808164E10E94441214
:1024E00021E030E001C0220F0A95EAF7111103C084
:1024F0002095282301C0282B85E08C9FF0018D9F1B
:10250000F00D1124E357FB4F23834381808162E167
:10251000DF91CF911F910F910C947811DF91CF91A2
:102520001F910F9108950F931F93CF93DF938230E4
:1025300060F5142F062FC82FD0E095E0899FF00199
:102540001124E357FB4F808165E10E94441221E092
:1025500030E001C0220F0A95EAF7111103C020955F
:10256000282301C0282B85E08C9FF0018D9FF00D62
:102570001124E357FB4F24834481808163E1DF9181
:10258000CF911F910F910C947811DF91CF911F91F2
:102590000F910895CF93823098F4C62F95E0899FCC
:1025A000F0011124E357FB4F808162E10E94441245
:1025B00090E002C095958795CA95E2F7817001C0B9
:1025C00080E0CF910895CF93823098F4C62F95E0A4
:1025D000899FF0011124E357FB4F808163E10E9442
:1025E000441290E002C095958795CA95E2F78170F4
:1025F00001C080E0CF910895823050F495E0899F2A
:10260000F0011124E357FB4F808162E10C944412E6
:1026100080E00895823050F495E0899FF001112404
:10262000E357FB4F808163E10C94441280E00895EE
:10263000FF920F931F93CF93DF93823068F5122F91
:10264000042FF62E95E0899FE0011124C357DB4F3C
:1026500088816AE00E944412E1E0F0E0BF0101C01D
:10266000660FFA94EAF78F7B862BBF0101C0660FD5
:102670000A95EAF78B7F682B01C0EE0F1A95EAF7EF
:102680006D7F462F4E2B88816AE0DF91CF911F919D
:102690000F91FF900C947811DF91CF911F910F91C2
:1026A000FF900895FF920F931F93CF93DF93823093
:1026B00068F5122F042FF62E95E0899FE001112472
:1026C000C357DB4F88816BE00E944412E1E0F0E0E9
:1026D000BF0101C0660FFA94EAF78F7B862BBF011A
:1026E00001C0660F0A95EAF78B7F682B01C0EE0FD9
:1026F0001A95EAF76D7F462F4E2B88816BE0DF91AC
:10270000CF911F910F91FF900C947811DF91CF9191
:102710001F910F91FF900895BF92CF92DF92EF9299
:10272000FF920F931F93CF93DF93823008F069C01D
:10273000D02EB22E142FD62FE82EF12C25E0829F1A
:10274000F0011124E357FB4F808168E00E9444129E
:1027500041E050E0FA0102C0EE0FFF1FDA95E2F708
:10276000EF01CE2EC094112319F04C2D482302C046
:102770004E2F482B85E08E9D80018F9D100D1124DA
:1027800003571B4FF801808168E00E947811F8011F
:10279000808166E00E944412BB2019F04C2D482332
:1027A00002C04C2F482B85E08E9D80018F9D100D1F
:1027B000112403571B4FF801808166E00E947811B5
:1027C000F801808164E00E944412D11003C04C2DB6
:1027D000482302C04C2F482B85E08E9DF0018F9D31
:1027E000F00D1124E357FB4F808164E0DF91CF911E
:1027F0001F910F91FF90EF90DF90CF90BF900C94BE
:102800007811DF91CF911F910F91FF90EF90DF90A2
:10281000CF90BF900895BF92CF92DF92EF92FF9238
:102820000F931F93CF93DF93823008F069C0D02EAF
:10283000B22E142FD62FE82EF12C25E0829FF00126
:102840001124E357FB4F808169E00E94441241E06C
:1028500050E0FA0102C0EE0FFF1FDA95E2F7EF0138
:10286000CE2EC094112319F04C2D482302C04E2FB8
:10287000482B85E08E9D80018F9D100D11240357FC
:102880001B4FF801808169E00E947811F801808176
:1028900067E00E944412BB2019F04C2D482302C06F
:1028A0004C2F482B85E08E9D80018F9D100D1124AB
:1028B00003571B4FF801808167E00E947811F801EF
:1028C000808165E00E944412D11003C04C2D482342
:1028D00002C04C2F482B85E08E9DF0018F9DF00D9E
:1028E0001124E357FB4F808165E0DF91CF911F9169
:1028F0000F91FF90EF90DF90CF90BF900C947811E4
:10290000DF91CF911F910F91FF90EF90DF90CF90CB
:10291000BF900895F8940E947A1088E090E00E9499
:10292000FE000E94980184E690E00E942B0E2FEF9B
:1029300087EA91E6215080409040E1F700C0000016
:1029400084E690E00E94930E2FEF87EA91E62150F3
:1029500080409040E1F700C0000084E690E00E94D3
:10296000A90E2FEF87EA91E6215080409040E1F7D1
:1029700000C00000D8CF97FB072E16F4009407D0B4
:1029800077FD09D00E940D1507FC05D03EF4909507
:1029900081959F4F0895709561957F4F0895A1E2AD
:1029A0001A2EAA1BBB1BFD010DC0AA1FBB1FEE1FC9
:1029B000FF1FA217B307E407F50720F0A21BB30B14
:1029C000E40BF50B661F771F881F991F1A9469F790
:1029D00060957095809590959B01AC01BD01CF01EC
:1029E00008950E942115A59F900DB49F900DA49F5E
:1029F000800D911D11240895B7FF0C94F1140E94CD
:102A0000F114821B930B08952A0D3B1D4C1D5D1D77
:102A10006E1D7F1D801F911F0895AA1BBB1B51E1D6
:102A200007C0AA1FBB1FA617B70710F0A61BB70B3E
:102A3000881F991F5A95A9F780959095BC01CD01E3
:102A40000895A29FB001B39FC001A39F700D811D87
:102A50001124911DB29F700D811D1124911D0895A7
:102A60000E94A11508F481E008950E94CD1588F018
:102A70009F5798F0B92F9927B751B0F0E1F0660F42
:102A8000771F881F991F1AF0BA95C9F714C0B13083
:102A900091F00E94E715B1E008950C94E715672FB7
:102AA000782F8827B85F39F0B93FCCF386957795B2
:102AB0006795B395D9F73EF490958095709561959B
:102AC0007F4F8F4F9F4F0895E89409C097FB3EF4C6
:102AD00090958095709561957F4F8F4F9F4F99236B
:102AE000A9F0F92F96E9BB279395F69587957795E9
:102AF0006795B795F111F8CFFAF4BB0F11F460FFA9
:102B00001BC06F5F7F4F8F4F9F4F16C0882311F000
:102B100096E911C0772321F09EE8872F762F05C014
:102B2000662371F096E8862F70E060E02AF09A95AF
:102B3000660F771F881FDAF7880F9695879597F9A4
:102B40000895990F0008550FAA0BE0E8FEEF16163E
:102B50001706E807F907C0F012161306E407F50791
:102B600098F0621B730B840B950B39F40A2661F005
:102B7000232B242B252B21F408950A2609F4A140A8
:102B8000A6958FEF811D811D089557FD9058440F24
:102B9000551F59F05F3F71F04795880F97FB991FBC
:102BA00061F09F3F79F08795089512161306140679
:102BB000551FF2CF4695F1DF08C016161706180606
:102BC000991FF1CF86957105610508940895E894E1
:102BD000BB2766277727CB0197F908950E94A11597
:102BE00008F48FEF08950E9406160C9477160E9441
:102BF000691638F00E94701620F0952311F00C949D
:102C000060160C94661611240C94E8150E94C515E4
:102C100070F3959FC1F3950F50E0551F629FF0012F
:102C2000729FBB27F00DB11D639FAA27F00DB11D48
:102C3000AA1F649F6627B00DA11D661F829F2227D1
:102C4000B00DA11D621F739FB00DA11D621F839F58
:102C5000A00D611D221F749F3327A00D611D231F2E
:102C6000849F600D211D822F762F6A2F11249F577C
:102C700050409AF0F1F088234AF0EE0FFF1FBB1F7F
:102C8000661F771F881F91505040A9F79E3F51053E
:102C900080F00C9460160C94E8155F3FE4F3983EC6
:102CA000D4F3869577956795B795F795E7959F5FE8
:102CB000C1F7FE2B880F911D9695879597F908957A
:102CC00097F99F6780E870E060E008959FEF80ECDF
:102CD000089500240A941616170618060906089582
:102CE00000240A9412161306140605060895092EE8
:102CF0000394000C11F4882352F0BB0F40F4BF2B57
:102D000011F460FF04C06F5F7F4F8F4F9F4F089596
:102D10000F931F93CF93DF93CDB7DEB72E970FB6E8
:102D2000F894DEBF0FBECDBF0E891F8986E08C836D
:102D30001A8309838FEF9FE79E838D83AE01465EE2
:102D40005F4F688D798DCE0101960E94B716EF8195
:102D5000F885E00FF11F10822E960FB6F894DEBFB3
:102D60000FBECDBFDF91CF911F910F9108952F928C
:102D70003F924F925F926F927F928F929F92AF920B
:102D8000BF92CF92DF92EF92FF920F931F93CF9358
:102D9000DF93CDB7DEB72B970FB6F894DEBF0FBE2B
:102DA000CDBF6C017B018A01FC01178216828381F1
:102DB00081FFCCC1CE0101963C01F6019381F70160
:102DC00093FD859193FF81917F01882309F4BAC116
:102DD000853239F493FD859193FF81917F0185328E
:102DE00029F4B60190E00E94D718E7CF912C212C4E
:102DF000312CFFE1F315D8F08B3279F038F48032C2
:102E000079F08332A1F4232D20611DC08D3261F051
:102E1000803369F4232D216016C0832D8260382E03
:102E2000E32DE4603E2E2AC0F32DF8601DC037FC70
:102E30002DC020ED280F2A3040F08E32B9F436FC38
:102E400081C1232D2064322E19C036FE06C08AE0CF
:102E5000989E200D1124922E11C0EAE02E9E200D86
:102E60001124222EF32DF0623F2E08C08C3621F45F
:102E7000832D8068382E02C0883641F4F70193FD17
:102E8000859193FF81917F018111B3CF982F9F7D11
:102E90009554933028F40C5F1F4F9FE399830DC026
:102EA000833631F0833771F0833509F059C021C082
:102EB000F801808189830E5F1F4F88248394912CB1
:102EC000530113C02801F2E04F0E511CF801A080FD
:102ED000B18036FE03C0692D70E002C06FEF7FEF56
:102EE000C5010E94CC184C018201F32DFF773F2EC3
:102EF00016C0280122E0420E511CF801A080B180CA
:102F000036FE03C0692D70E002C06FEF7FEFC50190
:102F10000E94C1184C01F32DF0683F2E820133FC52
:102F20001BC0822D90E088169906B0F4B60180E2AD
:102F300090E00E94D7182A94F4CFF50137FC8591D0
:102F400037FE81915F01B60190E00E94D7182110F1
:102F50002A9421E0821A91088114910471F7E8C043
:102F6000843611F0893641F5F80137FE07C06081DB
:102F70007181828193810C5F1F4F08C060817181D4
:102F8000072E000C880B990B0E5F1F4FF32DFF7659
:102F90003F2E97FF09C090958095709561957F4F62
:102FA0008F4F9F4FF0683F2E2AE030E0A3010E9430
:102FB0001319882E861845C0853731F4232D2F7EAE
:102FC000B22E2AE030E025C0932D997FB92E8F369E
:102FD000C1F018F4883579F0B5C0803719F088371A
:102FE00021F0B0C0E92FE061BE2EB4FE0DC0FB2D74
:102FF000F460BF2E09C034FE0AC0292F2660B22E0D
:1030000006C028E030E005C020E130E002C020E149
:1030100032E0F801B7FE07C060817181828193813F
:103020000C5F1F4F06C06081718180E090E00E5FF1
:103030001F4FA3010E941319882E8618FB2DFF77BE
:103040003F2E36FE0DC0232D2E7FA22E891458F45C
:1030500034FE0BC032FC09C0832D8E7EA82E05C025
:10306000B82CA32C03C0B82C01C0B92CA4FE0FC0EF
:10307000FE01E80DF11D8081803321F49A2D997EA7
:10308000A92E09C0A2FE06C0B394B39404C08A2D31
:10309000867809F0B394A3FC11C0A0FE06C0B21458
:1030A00088F4280C922C9B180EC0B21460F4B60160
:1030B00080E290E00E94D718B394F7CFB21418F4CE
:1030C0002B1802C0982C212CA4FE10C0B60180E35E
:1030D00090E00E94D718A2FE17C0A1FC03C088E7A9
:1030E00090E002C088E590E0B6010CC08A2D867899
:1030F00059F0A1FE02C08BE201C080E2A7FC8DE284
:10310000B60190E00E94D718891438F4B60180E324
:1031100090E00E94D7189A94F7CF8A94F301E80DB3
:10312000F11D8081B60190E00E94D7188110F5CF83
:10313000222009F442CEB60180E290E00E94D71826
:103140002A94F6CFF6018681978102C08FEF9FEF18
:103150002B960FB6F894DEBF0FBECDBFDF91CF9197
:103160001F910F91FF90EF90DF90CF90BF90AF90A5
:103170009F908F907F906F905F904F903F902F9097
:103180000895FC010590615070400110D8F78095BA
:1031900090958E0F9F1F0895FC0161507040019023
:1031A0000110D8F7809590958E0F9F1F08950F936B
:1031B0001F93CF93DF93FB01238121FD03C08FEF8A
:1031C0009FEF2CC022FF16C0468157812481358194
:1031D0004217530744F4A081B1819D012F5F3F4FF7
:1031E000318320838C93268137812F5F3F4F378334
:1031F000268314C08B01EC01FB010084F185E02DD6
:103200001995892BE1F6D80116968D919C91179707
:10321000019617969C938E931697CE01DF91CF91CE
:103220001F910F910895FA01AA27283051F12031FA
:1032300081F1E8946F936E7F6E5F7F4F8F4F9F4F4A
:10324000AF4FB1E03ED0B4E03CD0670F781F891F8C
:103250009A1FA11D680F791F8A1F911DA11D6A0F5A
:10326000711D811D911DA11D20D009F468943F910D
:103270002AE0269F11243019305D3193DEF6CF010C
:103280000895462F4770405D4193B3E00FD0C9F7D2
:10329000F6CF462F4F70405D4A3318F0495D31FD3F
:1032A0004052419302D0A9F7EACFB4E0A695979592
:1032B000879577956795BA95C9F700976105710568
:1032C00008959B01AC010A2E0694579547953795B2
:1032D0002795BA95C9F7620F731F841F951FA01D0C
:0632E0000895F894FFCFF1
:1032E600282800A000A000A0000A20407B746F667A
:1032F600313A2564202C746F66323A2025642C748A
:103306006F66333A2025647D00496E697469616C85
:10331600697A696E67204C46410A002564000A4CAA
:063326004641413A00009F
:00000001FF
