:100000000C9472000C9493000C9493000C94930045
:100010000C9493000C9493000C9493000C94930014
:100020000C9493000C9493000C9493000C94930004
:100030000C9493000C9493000C9493000C949300F4
:100040000C9493000C9493000C9493000C949300E4
:100050000C9493000C94570B0C9493000C94930005
:100060000C9493000C9495000C94CE000C94930087
:100070000C9493000C9493000C9493000C949300B4
:100080000C9493000C9493000C9493000C949300A4
:100090000C9493000C9493000C9493000C94930094
:1000A0000C9493000C9493000C9493000C94930084
:1000B0000C9493000C9493000C9493000C94930074
:1000C0000C9493000C9493000C9493000C94930064
:1000D0000C9493000C9493000C9493000C94930054
:1000E0000C94930011241FBECFEFD1E2DEBFCDBF31
:1000F00000E00CBF12E0A0E0B2E0E2E3F4E200E0D6
:100100000BBF02C007900D92AE31B107D9F723E0C3
:10011000AEE1B2E001C01D92A233B207E1F70E9446
:10012000570D0C9417120C9400001F920F920FB6EB
:100130000F9211240BB60F922F933F934F935F931F
:100140008F939F93EF93FF932091C0003091C6004F
:1001500028718091200290E001968F779927409135
:100160001F0250E08417950739F080932002FC01AC
:10017000ED5DFD4F308301C022E020931E02FF9110
:10018000EF919F918F915F914F913F912F910F90A0
:100190000BBE0F900FBE0F901F9018951F920F92DD
:1001A0000FB60F9211240BB60F928F939F93EF937C
:1001B000FF939091220280912102981779F080910B
:1001C000210290E001968F77992780932102FC010C
:1001D000ED55FD4F80818093C60005C08091C10020
:1001E0008F7D8093C100FF91EF919F918F910F9030
:1001F0000BBE0F900FBE0F901F901895F8941092A1
:100200002202109221021092200210921F02789472
:1002100097FF04C022E02093C0009F779093C50011
:100220008093C40088E98093C10086E08093C20077
:100230000895F8949091200280911F02981304C0B1
:10024000789480E091E00895789480911F0290E086
:1002500001968F77992780931F02FC01ED5DFD4F7A
:10026000208180911E0290E0982F8827820F911D97
:100270000895F8949091200280911F02981304C071
:10028000789480E091E008957894E0911F02F0E086
:100290003196EF77FF27ED5DFD4F208180911E02A3
:1002A00090E0982F8827820F911D089520912202B7
:1002B00030E02F5F3F4F2F7733274091210250E0EE
:1002C00024173507D1F3F901ED55FD4F80832093B5
:1002D00022028091C10080628093C1000895CF9373
:1002E000DF93EC018991882319F00E945601FACF1F
:1002F000DF91CF910895CF93DF93FC018491EF01BB
:100300002196882321F00E945601FE01F7CFDF914C
:10031000CF910895F8948091200220911F02789443
:1003200090E080589F4F821B91098F7799270895FD
:10033000F89480911F0280932002789408950F937F
:100340001F930097C9F0AC014150510960E070E083
:1003500080E090E08A019B010027012B022B032BF8
:1003600031F076956795579547950196F3CF982F7D
:100370008827842B952B02C080E090E01F910F917D
:100380000895CF93DF93D82FC62F809100020E944B
:10039000DF0C8D2F0E94320D8C2F0E94320DDF91C9
:1003A000CF910C942A0D1F93CF93DF93182FEB015D
:1003B000809100020E94DF0C812F0E94320D8D2F50
:1003C0000E94320D8C2F0E94320DDF91CF911F9130
:1003D0000C942A0DFF920F931F93CF93DF93F82E67
:1003E000EA01162F072F809100020E94DF0C8F2D4B
:1003F0000E94320D802F0E94320D812F0E94320DFB
:100400008D2F0E94320D8C2F0E94320DDF91CF91E3
:100410001F910F91FF900C942A0DCF93C82F8091BC
:1004200000020E94DF0C8C2F0E94320D809100028E
:1004300081600E94280D0E944D0DC82F0E942A0D38
:100440008C2FCF910895CF93DF93C82F8091000216
:100450000E94DF0C8C2F0E94320D8091000281607F
:100460000E94280D0E94430DC82FD0E0DC2FCC271E
:100470000E944D0DC82B0E942A0DCE01DF91CF9115
:100480000895CF92DF92EF92FF92CF93C82F809181
:1004900000020E94DF0C8C2F0E94320D809100021E
:1004A00081600E94280D0E94430DC82ED12CE12CA2
:1004B000F12CFC2CEE24DD24CC240E94430DE82AF0
:1004C0000E94430DC82F0E944D0DC82ADC2A0E94AD
:1004D0002A0DC701B601CF91FF90EF90DF90CF902A
:1004E0000895FF920F931F93CF93DF93182FF62E4B
:1004F000D72FC42F809100020E94DF0C812F0E9411
:10050000320D0F2D1D2FCC2339F0F80181918F0171
:100510000E94320DC150F7CFDF91CF911F910F9103
:10052000FF900C942A0DFF920F931F93CF93DF93AC
:10053000C82FF62E072F142F809100020E94DF0C87
:100540008C2F0E94320D8091000281600E94280D44
:10055000CF2DD02F112359F0123018F00E94430DE7
:1005600002C00E944D0D888311502196F3CFDF9178
:10057000CF911F910F91FF900C942A0DCF93C82F0C
:10058000682F66958AE80E94C101C0930002CF914E
:100590000895809100020895CF92DF92EF92FF922A
:1005A0006B017C0120E030E0A9010E94D60D87FD9F
:1005B00019C028EB3EEF4FEF53E4C701B6010E948C
:1005C000940E18167CF020E030E040E053E4C701C0
:1005D000B6010E94990E0E94DB0D84E40E94D301B3
:1005E00081E001C080E0FF90EF90DF90CF90089510
:1005F00084E40E942302BC0180E090E00E940A0E85
:1006000020E030E040E05CE30E94990E08950097FE
:1006100011F480E503C0019731F480E70E940D02D8
:100620008F5F880F08958FEF0895CF92DF92EF923A
:10063000FF926B017C0161E080E80E94C10161E0F2
:100640008FEF0E94C10160E080E00E94C1016091D3
:100650002D0381E90E94C10161E080E00E94C10197
:1006600060E08FEF0E94C10160E080E80E94C1015C
:10067000C114D104E104F10499F088EF0E9423022F
:10068000009739F0DC01A70196010E94B40D6B01BF
:100690007C01B701A60184E00E94EA0164E001C088
:1006A00062E080E0FF90EF90DF90CF900C94C1016A
:1006B00061E080E00E94C10161E08FEF0E94C10112
:1006C00060E080E00E94C10160E081E90E94C10118
:1006D00061E080E00E94C10160E08FEF0C94C101F5
:1006E000EF92FF920F931F93CF93DF93CDB7DEB7B7
:1006F0002C970FB6F894DEBF0FBECDBF7C010E94D1
:100700004B0B70932C0360932B0383E10E940D022B
:100710008770D9F48091240390912503892BA9F344
:100720000E944B0B20912B0330912C03621B730B07
:1007300080912403909125038617970730F781E075
:10074000809323038FEF9FEF36C0E114F10429F467
:100750008EE10E9423028C0129C04CE0BE016F5F34
:100760007F4F84E10E9493028981869586958695C4
:10077000F70180878B819C81982789279827978309
:1007800086838F81988598278927982793838283EA
:1007900089859A85982789279827958384830B854F
:1007A0001C851027012710271183008361E08BE04F
:1007B0000E94C101C8012C960FB6F894DEBF0FBE8F
:1007C000CDBFDF91CF911F910F91FF90EF900895D2
:1007D000CF93DF93EC0161E080E80E94C10161E00A
:1007E0008FEF0E94C10160E080E00E94C101609132
:1007F0002D0381E90E94C10161E080E00E94C101F6
:1008000060E08FEF0E94C10160E080E80E94C101BA
:1008100061E080E00E94C1010E944B0B70932C03A9
:1008200060932B0380E00E940D0280FF1DC0809129
:10083000240390912503892BA9F30E944B0B20914F
:100840002B0330912C03621B730B80912403909136
:1008500025038617970730F781E0809323038FEFF6
:100860009FEFDF91CF910895CE01DF91CF910C944E
:10087000700380912303109223030895909325031E
:100880008093240308958091240390912503089573
:10089000EF92FF920F931F93CF937C018B0161E046
:1008A00080E80E94C10161E08FEF0E94C10160E019
:1008B00080E00E94C10166E08FEF0E94C10183E8E1
:1008C0000E940D02682F646083E80E94C10167E006
:1008D0008FEF0E94C10161E081E80E94C10161E0E7
:1008E00080E80E94C1016BE684E90E94C10160E0DA
:1008F00083E80E94C1010E944B0B70932C0360930C
:100900002B0383E80E940D02C82F811116C080912D
:10091000240390912503892BA1F30E944B0B209176
:100920002B0330912C03621B730B80912403909155
:1009300025038617970728F731C061E083E80E94F6
:10094000C10182E90E940D02982F9F77F7019083E1
:10095000881F8827881FF801808360E081E80E9453
:10096000C10166E08FEF0E94C10183E80E940D0281
:10097000682F6B7F83E80E94C10161E08FEF0E94C6
:10098000C10161E080E00E94C10160E08FEF0E9440
:10099000C10160E080E80E94C101C1E08C2FCF91CD
:1009A0001F910F91FF90EF900895CF93DF93EC018B
:1009B00081E00E940D0284FB992790F9988383FBC4
:1009C000992790F99A8382FB992790F9998386FB5E
:1009D000992790F99B83881F8827881F8C83DF9134
:1009E000CF9108952F923F924F925F926F927F9294
:1009F0008F929F92AF92BF92CF92DF92EF92FF922F
:100A00000F931F93CF93DF9300D000D0CDB7DEB705
:100A10001C017E836D8380E090E00E94070390E0DC
:100A2000ED81FE819183808386E40E940D02682E11
:100A3000712CFFEF6F1A7F0AED81FE81758264824F
:100A4000A081B0E020E03FE24AE350E00E94B40D14
:100A50004B015C01F4EF8F0EF1E09F1EA11CB11C55
:100A600098EEC92E93E0D92EE12CF12CC501B401EA
:100A7000A70196010E94920DD3010E94BF0D6983C8
:100A80007A838B839C8320ED422E27E0522E612CAB
:100A9000712CC501B401A30192010E94920D6981DC
:100AA0007A818B819C81620F731F841F951FA70120
:100AB00096010E94920DED81FE8122873387448743
:100AC000558781E50E9423028C01112702C0000F87
:100AD000111F9A95E2F70F5F1F4FED81FE8117837B
:100AE0000683A081B0E020E03FE24AE350E00E94AC
:100AF000B40D4B015C01F4EF8F0EF1E09F1EA11CC1
:100B0000B11CC501B401A70196010E94920DD80144
:100B10000E94B40D69837A838B839C83C501B401E1
:100B2000A30192010E94920D69817A818B819C813F
:100B3000620F731F841F951FA70196010E94920DDB
:100B4000ED81FE8126873787408B518B80E70E949D
:100B50000D028F5F880F90E0ED81FE819383828389
:100B600081E70E9423029C01992702C0880F991FE8
:100B70003A95E2F70196ED81FE8191878087F10138
:100B80002381222341F0ED81FE8126813781821B62
:100B9000930B91878087ED81FE81A281B0E020E0F8
:100BA0003FE24AE350E00E94B40D6B017C01F4EF98
:100BB000CF0EF1E0DF1EE11CF11C88EE882E83E0F1
:100BC000982EA12CB12CC701B601A50194010E9459
:100BD000920DED81FE81A085B1850E94B40D2B019F
:100BE0003C01C701B60120ED37E040E050E00E9433
:100BF000920DC301B201620F731F841F951FA501DF
:100C000094010E94920DED81FE81228B338B448BE7
:100C1000558B26960FB6F894DEBF0FBECDBFDF9181
:100C2000CF911F910F91FF90EF90DF90CF90BF90E9
:100C3000AF909F908F907F906F905F904F903F907C
:100C40002F9008954F925F926F927F928F929F9212
:100C5000AF92BF92CF92DF92EF92FF921F93CF930A
:100C6000DF93CDB7DEB76B970FB6F894DEBF0FBE3C
:100C7000CDBF60322EE472078105910508F4A8C04B
:100C80006B017C01CE0147960E94D504BE016F5FC7
:100C90007F4FCE0147960E94F2048F89882349F046
:100CA0008B859C85AD85BE858A5C944FAF4FBF4FC9
:100CB00004C088EE98E0A0E0B0E0298D222369F01E
:100CC0004B855C856D857E854E545D4F6F4F7F4FA4
:100CD000440F551F661F771F0BC0288D222361F01C
:100CE0004B855C856D857E854C565D4F6F4F7F4F84
:100CF000840F951FA61FB71F1A8D112361F04F8512
:100D0000588969897A894C565D4F6F4F7F4F840FA0
:100D1000951FA61FB71F2B8D222309F457C02C0146
:100D20003D0126E2420E22E0521E611C711CC414D9
:100D3000D504E604F70408F44BC0AB81B0E020E032
:100D40003FE24AE350E00E94B40D4B015C0124EF06
:100D5000820E21E0921EA11CB11CA701960124194C
:100D6000350946095709A8EEB3E00E94B40D2B01DE
:100D70003C01C501B40120ED37E040E050E00E94A5
:100D8000920D420E531E641E751EC501B40128EE5D
:100D900033E040E050E00E94920DC301B2010E9496
:100DA000920DC901112321F08F819885820F931F25
:100DB0000E949F01BC0181E70E94D301C0922E03D3
:100DC000D0922F03E0923003F092310381E001C012
:100DD00080E06B960FB6F894DEBF0FBECDBFDF91FB
:100DE000CF911F91FF90EF90DF90CF90BF90AF9089
:100DF0009F908F907F906F905F904F9008950F938A
:100E00001F93CF93DF93CDB7DEB76B970FB6F894F0
:100E1000DEBF0FBECDBFCE0147960E94D504BE01F6
:100E20006F5F7F4FCE0147960E94F2048F8988231F
:100E300059F08B859C85AD85BE85BC01CD016C5775
:100E4000724F8F4F9F4F04C066E37BE080E090E0DD
:100E5000298D222369F00B851C852D853E850E5436
:100E60001D4F2F4F3F4F000F111F221F331F0BC06D
:100E7000288D222361F00B851C852D853E850C561F
:100E80001D4F2F4F3F4F600F711F821F931F2A8DE1
:100E9000222361F00F85188929893A890C561D4F44
:100EA0002F4F3F4F600F711F821F931F2B8D2223E7
:100EB00061F00B891C892D893E890A5D1D4F2F4FDA
:100EC0003F4F600F711F821F931F60932E0370931B
:100ED0002F0380933003909331036B960FB6F894F1
:100EE000DEBF0FBECDBFDF91CF911F910F9108954F
:100EF000CF93682F616080E00E94C1010E944B0B7C
:100F000070932C0360932B0383E10E940D02C82F82
:100F1000C770B1F48091240390912503892BA1F32C
:100F20000E944B0B20912B0330912C03621B730BFF
:100F300080912403909125038617970728F709C00D
:100F400061E08BE00E94C10160E080E00E94C1018D
:100F5000C1E08C2FCF910895CF93DF93CDB7DEB74B
:100F600028970FB6F894DEBF0FBECDBF882341F09F
:100F700089E80E940D02682F616089E80E94C10122
:100F800060E088E80E94C10161E080E80E94C10140
:100F900061E08FEF0E94C10160E080E00E94C1012A
:100FA00081E90E940D0280932D0361E080E00E94A0
:100FB000C10160E08FEF0E94C10160E080E80E9403
:100FC000C10180E60E940D02682F626180E60E94E6
:100FD000C10160E270E084E40E94D3016FEF81E020
:100FE0000E94C101BE01695F7F4FCE0108960E9439
:100FF0004804811102C080E0D4C146E0BE016F5FA9
:101000007F4F80EB0E94930261E08FEF0E94C1014D
:1010100060E08FE40E94C1016CE28EE40E94C10195
:1010200060E08FEF0E94C10164EB86EB0E94C1017A
:101030008F81811102C040E001C04CE0A88580E0B2
:1010400090E061E070E0282F269526952695582F90
:101050005770E1E0F0E0EC0FFD1FE20FF11D841787
:1010600010F0A9130AC09B0101C0220F5A95EAF79C
:10107000209530812323208309C0208130E002C0E5
:10108000359527955A95E2F720FD9F5F8F5F803356
:10109000D1F646E0BE016F5F7F4F80EB0E94710288
:1010A00061E08FEF0E94C10160E080E00E94C10119
:1010B00060E08FEF0E94C10160E089E00E94C10101
:1010C00060E080E10E94C10160E081E10E94C10115
:1010D00061E084E20E94C1016FEF85E20E94C101DC
:1010E00060E085E70E94C10161E08FEF0E94C101CD
:1010F0006CE28EE40E94C10160E088E40E94C101BC
:1011000060E280E30E94C10160E08FEF0E94C101B4
:1011100069E080E30E94C10160E084E50E94C101B2
:1011200064E081E30E94C10163E082E30E94C101A7
:1011300063E880E40E94C10165E286E40E94C10187
:1011400060E080E60E94C10160E087E20E94C10188
:1011500066E080E50E94C10160E081E50E94C10176
:1011600066E982E50E94C10168E086E50E94C1014E
:1011700060E387E50E94C10160E081E60E94C10151
:1011800060E082E60E94C10160E084E60E94C10145
:1011900060E085E60E94C10160EA86E60E94C10126
:1011A00061E08FEF0E94C10162E382E20E94C1010F
:1011B00064E187E40E94C1016FEF89E40E94C101EC
:1011C00060E08AE40E94C10160E08FEF0E94C101EB
:1011D0006AE08AE70E94C10160E08BE70E94C101DA
:1011E00061E288E70E94C10161E08FEF0E94C101C6
:1011F00064E383E20E94C10160E082E40E94C101D5
:101200006FEF84E40E94C10166E285E40E94C1019F
:1012100065E086E40E94C10160E480E40E94C101AF
:1012200066E08EE00E94C1016AE180E20E94C10195
:1012300060E483E40E94C10160E08FEF0E94C1017D
:1012400063E084E30E94C10164E485E30E94C1017C
:1012500061E08FEF0E94C10164E081E30E94C1015F
:1012600069E08BE40E94C10165E08CE40E94C10149
:1012700064E08DE40E94C10160E08FEF0E94C10133
:1012800060E084E40E94C10160E285E40E94C10143
:1012900068E087E40E94C10168E288E40E94C1011D
:1012A00060E087E60E94C10164E080E70E94C1011E
:1012B00061E081E70E94C1016EEF82E70E94C101F7
:1012C00060E086E70E94C10160E087E70E94C101FB
:1012D00061E08FEF0E94C10161E08DE00E94C101D9
:1012E00060E08FEF0E94C10161E080E80E94C101CF
:1012F00068EF81E00E94C10161E08FEF0E94C101AF
:1013000061E08EE80E94C10161E080E00E94C101BD
:1013100060E08FEF0E94C10160E080E80E94C1019F
:1013200064E08AE00E94C10184E80E940D02682FF7
:101330006F7E84E80E94C10161E08BE00E94C101E0
:101340000E94FF0660932E0370932F038093300357
:101350009093310368EE81E00E94C10160912E03F9
:1013600070912F0380913003909131030E942206E7
:1013700061E081E00E94C10180E40E947807882337
:1013800009F439CE62E081E00E94C10180E00E9450
:101390007807882309F42FCE68EE81E00E94C1010E
:1013A00081E028960FB6F894DEBF0FBECDBFDF9167
:1013B000CF9108958F929F92AF92BF92CF92DF927A
:1013C000EF92FF921F93CF93DF93CDB7DEB76B976A
:1013D0000FB6F894DEBF0FBECDBF6C01162FF62EF0
:1013E000F694FA94CE0147960E94D504BE016F5F31
:1013F0007F4FCE0147960E94F204C114D10409F038
:1014000072C01E3069F028F41C3009F028C168E170
:101410000AC0103139F0123109F021C160E503C072
:1014200060E301C060E487E50E94C10168E086E5F1
:101430000E94C1016F2D80E50E94C101A12FB0E083
:1014400020E03FE24AE350E00E94B40D6B017C01D2
:1014500024EFC20E21E0D21EE11CF11CC701B6012F
:1014600028EE33E040E050E00E94920D49015A011D
:10147000C701B60120ED37E040E050E00E94920D38
:1014800069017A012F85388949895A89A8EEB3E024
:101490000E94B40D6C0D7D1D8E1D9F1DA501940134
:1014A0000E94920DC9010E949F01BC0181E50E942A
:1014B000D3012B853C854D855E85A8EEB3E00E9467
:1014C000B40D6C0D7D1D8E1D9F1DA50194010E9404
:1014D000920D6FEF213081E0380708F4620F86E447
:1014E0000E94C101A1C0CA94CD2809F0B8C01A3029
:1014F00069F1C8F4183009F0B2C060E188E40E94D4
:10150000C10168E087E40E94C10162E082E30E94B9
:10151000C1016CE080E30E94C10161E08FEF0E9495
:10152000C10160E336C01C30F9F01E3009F097C0ED
:1015300068E488E40E94C10168E087E40E94C10178
:1015400063E082E30E94C10167E01BC068E288E4B7
:101550000E94C10168E087E40E94C10163E082E368
:101560000E94C10169E00DC068E388E40E94C101E6
:1015700068E087E40E94C10163E082E30E94C10148
:1015800068E080E30E94C10161E08FEF0E94C10129
:1015900060E280E30E94C10160E08FEF0E94C10120
:1015A0006F2D80E70E94C101A12FB0E020E03FE253
:1015B0004AE350E00E94B40D6B017C0124EFC20E9F
:1015C00021E0D21EE11CF11C2B893C894D895E89EA
:1015D000A8EEB3E00E94B40D4B015C01C701B60157
:1015E00020ED37E040E050E00E94920D820E931E05
:1015F000A41EB51EC701B60128EE33E040E050E05E
:101600000E94920DC501B4010E94920DC9016A8D1C
:10161000662321F08F819885820F931F0E949F017E
:10162000BC0181E70E94D30160912E0370912F03CA
:1016300080913003909131030E94220681E00E9444
:101640000D02182F62E081E00E94C10180E00E943B
:101650007807612F81E00E94C10181E001C080E034
:101660006B960FB6F894DEBF0FBECDBFDF91CF9162
:101670001F91FF90EF90DF90CF90BF90AF909F9021
:101680008F90089582E084BD95E095BD9AE797BD5F
:1016900080936E0008952FB7F8946091260370919F
:1016A000270380912803909129032FBF08951F924B
:1016B0000F920FB60F9211248F939F93AF93BF9306
:1016C0008091260390912703A0912803B0912903CC
:1016D0000796A11DB11D8093260390932703A09325
:1016E0002803B093290380912A039DE6980F9D3724
:1016F00018F490932A0316C0805180932A03809196
:10170000260390912703A0912803B0912903019605
:10171000A11DB11D8093260390932703A093280356
:10172000B0932903BF91AF919F918F910F900FBEFE
:101730000F901F9018950E941901911102C08111FC
:1017400008958FEF0895E1E0F1E080818863808360
:10175000E2E0F1E08081886380830895E2E0F1E0D7
:101760008081877F80830895E2E0F1E08081886056
:1017700080830895E2E0F1E080818F7D8083089589
:10178000E2E0F1E08081806280830895E2E0F1E0B0
:1017900080818F7E80830895E2E0F1E08081806126
:1017A00080830895F894A1EAB0E01C928FEF8093B3
:1017B000A5001092A4001092A9001092A800109207
:1017C000AB001092AA001092AD001092AC00E0EABB
:1017D000F0E08081886A808380818B7A8083808139
:1017E0008160808380818D7F80838C9188608C93E1
:1017F0008C9183608C938C918B7F8C9378940895DB
:1018000080958093A80060956093AC0040954093CC
:10181000AA00089541B121E030E0F90102C0EE0FC5
:10182000FF1F8A95E2F7CF014E2B41B991B101C05C
:10183000220F6A95EAF72095292321B992B1809564
:10184000892382B982B108951092B1001092B2003A
:101850001092B0004AE04A95F1F700C042B121E091
:1018600030E0F90102C0EE0FFF1F8A95E2F7CF01C9
:10187000942F982B92B9F5E3FA95F1F7000092B105
:101880008095892382B9A90102C0440F551F6A952A
:10189000E2F720E080B190E084239523892B49F082
:1018A000222329F08091B10087608093B10021E06C
:1018B000F1CF222371F31092B1006091B20070E079
:1018C00080E090E00E940C0E29E134E046E251E411
:1018D0000E94990E0E94DB0D0895EF92FF920F93E4
:1018E0001F93CF93DF93EC0162E070E080E090E023
:1018F0000E940A0C62E070E080E090E00E94240CFC
:10190000162F072F67E070E085E090E00E940A0C38
:1019100067E070E085E090E00E94240CF62EE72E50
:1019200063E070E081E090E00E940A0C63E070E008
:1019300081E090E00E94240C7F936F93EF92FF92DE
:101940000F931F9381E092E09F938F93DF93CF9348
:101950000E942E0F8DB79EB70A960FB6F8949EBFC1
:101960000FBE8DBFDF91CF911F910F91FF90EF9030
:101970000895E1E0F1E0808188678083E2E0F1E0B2
:1019800080818867808308950E94B90C0E94D20BE1
:1019900086E98093A8008093AC0008951092A80077
:1019A0001092AC001092AA0008950E94A30B0C9410
:1019B000D20B1092B90080EC8093B800089594EA9D
:1019C0009093BC009091BC0097FFFCCF9091B90020
:1019D000987F983021F0903111F081E00895809344
:1019E000BB0084E88093BC008091BC0087FFFCCFE3
:1019F0008091B900887F883111F0803471F780E0E0
:101A0000089524EA34E844E92093BC009091BC0096
:101A100097FFFCCF9091B900987F983011F09031EA
:101A200099F78093BB003093BC009091BC0097FF66
:101A3000FCCF9091B900987F903211F0983539F42D
:101A40004093BC009091BC0094FDFCCFDDCF089585
:101A50000C94DF0C84E98093BC008091BC0084FD71
:101A6000FCCF08958093BB0084E88093BC008091F4
:101A7000BC0087FFFCCF9091B900987F81E098323D
:101A800009F480E0089584EC8093BC008091BC0050
:101A900087FFFCCF8091BB00089584E88093BC0051
:101AA0008091BC0087FFFCCF8091BB000895CF934D
:101AB000DF93F8940E94D50C2FEF37EA81E621508E
:101AC00030408040E1F700C00000C8EAD0E086E97D
:101AD0008883AAEAB0E01C92ECEAF0E080839FEFF2
:101AE00023EC39E0915020403040E1F700C0000085
:101AF00088831C9210828FEF9DE222E281509040F9
:101B00002040E1F700C0000018821C92108288E09B
:101B100090E00E94FE000E94980180E090E0DF913A
:101B2000CF910895A1E21A2EAA1BBB1BFD010DC087
:101B3000AA1FBB1FEE1FFF1FA217B307E407F5077D
:101B400020F0A21BB30BE40BF50B661F771F881F59
:101B5000991F1A9469F760957095809590959B01EF
:101B6000AC01BD01CF0108950E94C70DA59F900D46
:101B7000B49F900DA49F800D911D11240895B7FF6F
:101B80000C94B40D0E94B40D821B930B0895A29F78
:101B9000B001B39FC001A39F700D811D1124911D41
:101BA000B29F700D811D1124911D08950E94470E52
:101BB00008F481E008950E94730E88F09F5798F012
:101BC000B92F9927B751B0F0E1F0660F771F881F42
:101BD000991F1AF0BA95C9F714C0B13091F00E945C
:101BE0008D0EB1E008950C948D0E672F782F882705
:101BF000B85F39F0B93FCCF3869577956795B39583
:101C0000D9F73EF490958095709561957F4F8F4FF1
:101C10009F4F0895E89409C097FB3EF490958095F6
:101C2000709561957F4F8F4F9F4F9923A9F0F92FA2
:101C300096E9BB279395F695879577956795B79520
:101C4000F111F8CFFAF4BB0F11F460FF1BC06F5F06
:101C50007F4F8F4F9F4F16C0882311F096E911C018
:101C6000772321F09EE8872F762F05C0662371F039
:101C700096E8862F70E060E02AF09A95660F771F4D
:101C8000881FDAF7880F9695879597F90895990F29
:101C90000008550FAA0BE0E8FEEF16161706E80736
:101CA000F907C0F012161306E407F50798F0621B57
:101CB000730B840B950B39F40A2661F0232B242B2C
:101CC000252B21F408950A2609F4A140A6958FEF4B
:101CD000811D811D089557FD9058440F551F59F0DF
:101CE0005F3F71F04795880F97FB991F61F09F3F09
:101CF00079F087950895121613061406551FF2CF32
:101D00004695F1DF08C0161617061806991FF1CF81
:101D100086957105610508940895E894BB276627A8
:101D20007727CB0197F908950E94470E08F48FEFAB
:101D300008950E94AC0E0C941D0F0E940F0F38F0F6
:101D40000E94160F20F0952311F00C94060F0C94AE
:101D50000C0F11240C948E0E0E946B0E70F3959F45
:101D6000C1F3950F50E0551F629FF001729FBB2792
:101D7000F00DB11D639FAA27F00DB11DAA1F649F2E
:101D80006627B00DA11D661F829F2227B00DA11DE1
:101D9000621F739FB00DA11D621F839FA00D611D67
:101DA000221F749F3327A00D611D231F849F600D88
:101DB000211D822F762F6A2F11249F5750409AF0B1
:101DC000F1F088234AF0EE0FFF1FBB1F661F771F3D
:101DD000881F91505040A9F79E3F510580F00C9408
:101DE000060F0C948E0E5F3FE4F3983ED4F3869575
:101DF00077956795B795F795E7959F5FC1F7FE2BA8
:101E0000880F911D9695879597F9089597F99F6783
:101E100080E870E060E008959FEF80EC0895002472
:101E20000A941616170618060906089500240A943F
:101E300012161306140605060895092E0394000CC5
:101E400011F4882352F0BB0F40F4BF2B11F460FF54
:101E500004C06F5F7F4F8F4F9F4F08950F931F9365
:101E6000CF93DF93CDB7DEB72E970FB6F894DEBFD2
:101E70000FBECDBF0E891F8986E08C831A8309832C
:101E80008FEF9FE79E838D83AE01465E5F4F688D27
:101E9000798DCE0101960E945D0FEF81F885E00FEC
:101EA000F11F10822E960FB6F894DEBF0FBECDBF85
:101EB000DF91CF911F910F9108952F923F924F92F2
:101EC0005F926F927F928F929F92AF92BF92CF92CA
:101ED000DF92EF92FF920F931F93CF93DF93CDB7D3
:101EE000DEB72B970FB6F894DEBF0FBECDBF6C01E7
:101EF0007B018A01FC0117821682838181FFCCC19C
:101F0000CE0101963C01F6019381F70193FD859185
:101F100093FF81917F01882309F4BAC1853239F496
:101F200093FD859193FF81917F01853229F4B6015C
:101F300090E00E947D11E7CF912C212C312CFFE104
:101F4000F315D8F08B3279F038F4803279F083329F
:101F5000A1F4232D20611DC08D3261F0803369F41E
:101F6000232D216016C0832D8260382EE32DE4607E
:101F70003E2E2AC0F32DF8601DC037FC2DC020ED89
:101F8000280F2A3040F08E32B9F436FC81C1232D5F
:101F90002064322E19C036FE06C08AE0989E200DBD
:101FA0001124922E11C0EAE02E9E200D1124222E23
:101FB000F32DF0623F2E08C08C3621F4832D80680B
:101FC000382E02C0883641F4F70193FD859193FFC6
:101FD00081917F018111B3CF982F9F7D95549330CC
:101FE00028F40C5F1F4F9FE399830DC0833631F0B7
:101FF000833771F0833509F059C021C0F801808121
:1020000089830E5F1F4F88248394912C530113C042
:102010002801F2E04F0E511CF801A080B18036FE7D
:1020200003C0692D70E002C06FEF7FEFC5010E9411
:1020300072114C018201F32DFF773F2E16C028014B
:1020400022E0420E511CF801A080B18036FE03C090
:10205000692D70E002C06FEF7FEFC5010E9467112C
:102060004C01F32DF0683F2E820133FC1BC0822D02
:1020700090E088169906B0F4B60180E290E00E94E4
:102080007D112A94F4CFF50137FC859137FE8191BB
:102090005F01B60190E00E947D1121102A9421E099
:1020A000821A91088114910471F7E8C0843611F006
:1020B000893641F5F80137FE07C060817181828160
:1020C00093810C5F1F4F08C060817181072E000C47
:1020D000880B990B0E5F1F4FF32DFF763F2E97FF56
:1020E00009C090958095709561957F4F8F4F9F4F58
:1020F000F0683F2E2AE030E0A3010E94B911882E3B
:10210000861845C0853731F4232D2F7EB22E2AE064
:1021100030E025C0932D997FB92E8F36C1F018F489
:10212000883579F0B5C0803719F0883721F0B0C014
:10213000E92FE061BE2EB4FE0DC0FB2DF460BF2E72
:1021400009C034FE0AC0292F2660B22E06C028E03E
:1021500030E005C020E130E002C020E132E0F801CB
:10216000B7FE07C060817181828193810C5F1F4F30
:1021700006C06081718180E090E00E5F1F4FA30177
:102180000E94B911882E8618FB2DFF773F2E36FE50
:102190000DC0232D2E7FA22E891458F434FE0BC0BF
:1021A00032FC09C0832D8E7EA82E05C0B82CA32C2E
:1021B00003C0B82C01C0B92CA4FE0FC0FE01E80D6D
:1021C000F11D8081803321F49A2D997EA92E09C0BA
:1021D000A2FE06C0B394B39404C08A2D867809F099
:1021E000B394A3FC11C0A0FE06C0B21488F4280C5E
:1021F000922C9B180EC0B21460F4B60180E290E0FD
:102200000E947D11B394F7CFB21418F42B1802C0BA
:10221000982C212CA4FE10C0B60180E390E00E940F
:102220007D11A2FE17C0A1FC03C088E790E002C0A8
:1022300088E590E0B6010CC08A2D867859F0A1FEA1
:1022400002C08BE201C080E2A7FC8DE2B60190E003
:102250000E947D11891438F4B60180E390E00E9459
:102260007D119A94F7CF8A94F301E80DF11D8081D6
:10227000B60190E00E947D118110F5CF222009F473
:1022800042CEB60180E290E00E947D112A94F6CF02
:10229000F6018681978102C08FEF9FEF2B960FB6D4
:1022A000F894DEBF0FBECDBFDF91CF911F910F918C
:1022B000FF90EF90DF90CF90BF90AF909F908F9066
:1022C0007F906F905F904F903F902F900895FC010A
:1022D0000590615070400110D8F7809590958E0F51
:1022E0009F1F0895FC016150704001900110D8F7C4
:1022F000809590958E0F9F1F08950F931F93CF93F6
:10230000DF93FB01238121FD03C08FEF9FEF2CC0E2
:1023100022FF16C046815781248135814217530719
:1023200044F4A081B1819D012F5F3F4F3183208311
:102330008C93268137812F5F3F4F3783268314C0CC
:102340008B01EC01FB010084F185E02D1995892BAF
:10235000E1F6D80116968D919C91179701961796E4
:102360009C938E931697CE01DF91CF911F910F9181
:102370000895FA01AA27283051F1203181F1E8941B
:102380006F936E7F6E5F7F4F8F4F9F4FAF4FB1E068
:102390003ED0B4E03CD0670F781F891F9A1FA11D63
:1023A000680F791F8A1F911DA11D6A0F711D811D64
:1023B000911DA11D20D009F468943F912AE0269F29
:1023C00011243019305D3193DEF6CF010895462F88
:1023D0004770405D4193B3E00FD0C9F7F6CF462F69
:1023E0004F70405D4A3318F0495D31FD40524193D2
:1023F00002D0A9F7EACFB4E0A6959795879577958F
:102400006795BA95C9F700976105710508959B0115
:10241000AC010A2E06945795479537952795BA959E
:10242000C9F7620F731F841F951FA01D0895F894AC
:02243000FFCFDC
:102432002820407B746F66313A25642C746F6632B3
:0E2442003A25642C746F66333A25647D0000E1
:00000001FF
